:100000000C9463000C948B000C948B000C948B006C
:100010000C948B000C948B000C948B000C948B0034
:100020000C948B000C948B000C948B000C948B0024
:100030000C948B000C948B000C948B000C948B0014
:100040000C94D4060C948B000C94D3050C94AD0541
:100050000C948B000C948B000C948B000C948B00F4
:100060000C948B000C948B000000000024002700EF
:100070002A0000000000250028002B0000000008D6
:10008000000201000003040700000000000000005F
:1000900000000000230026002900040404040404D6
:1000A0000404020202020202030303030303010227
:1000B00004081020408001020408102001020408F6
:1000C00010200318D71711241FBECFEFD8E0DEBFD2
:1000D000CDBF14E0A0E0B1E0E0ECFFE302C005908A
:1000E0000D92AA32B107D9F725E0AAE2B4E001C027
:1000F0001D92AD3BB207E1F710E0C2E6D0E004C0CC
:100100002197FE010E943A19C136D107C9F70E9412
:10011000420F0C94D31F0C940000FC01918D828D32
:10012000981761F0828DDF01A80FB11D5D968C914B
:10013000928D9F5F9F73928F90E008958FEF9FEF56
:100140000895FC01918D828D981731F0828DE80F12
:10015000F11D858D90E008958FEF9FEF0895FC01CC
:10016000918D228D892F90E0805C9F4F821B910999
:100170008F73992708958EEB94E00E94AF0021E0E1
:10018000892B09F420E0822F0895FC01848DDF0182
:10019000A80FB11DA35ABF4F2C91848D90E00196FA
:1001A0008F739927848FA689B7892C93A089B189E9
:1001B0008C9180648C93938D848D981306C00288F3
:1001C000F389E02D80818F7D80830895EF92FF92E7
:1001D0000F931F93CF93DF93EC0181E0888F9B8D6A
:1001E0008C8D981305C0E889F989808185FD24C02C
:1001F000F62E0B8D10E00F5F1F4F0F731127E02EAF
:100200008C8DE8120CC00FB607FCFACFE889F9898B
:10021000808185FFF5CFCE010E94C500F1CF8B8D87
:10022000FE01E80FF11DE35AFF4FF0820B8FEA89C0
:10023000FB898081806207C0EE89FF896083E8893D
:10024000F98980818064808381E090E0DF91CF91A3
:100250001F910F91FF90EF900895CF93DF93EC01E2
:10026000888D8823C9F0EA89FB89808185FD05C0D6
:10027000A889B9898C9186FD0FC00FB607FCF5CF10
:10028000808185FFF2CFA889B9898C9185FFEDCF58
:10029000CE010E94C500E7CFDF91CF91089580E0A5
:1002A00090E0892B29F00E94BB0081110C94000082
:1002B0000895CB0108957F928F929F92AF92BF9243
:1002C000CF92DF92EF92FF920F931F93CF93DF9322
:1002D000EC0149015A018B01C12CD12C7601C814C3
:1002E000D904EA04FB0484F5F80171908F018F852D
:1002F00080FF0BC0E881F9810084F185E02D20E1C9
:1003000044E060E070E0CE010995EB85FC858D85C9
:100310009E85E817F90738F470828B859C850196D5
:100320009C878B870BC0E881F981672D70E0028C78
:10033000F38DE02DCE010995019649F02FEFC21AF9
:10034000D20AE20AF20ACBCFB401C50102C0B6015B
:10035000C701DF91CF911F910F91FF90EF90DF9038
:10036000CF90BF90AF909F908F907F900895CF9344
:10037000DF93EC01E881F9810288F389E02D09958A
:100380008F3F2FEF920731F02D813E812F5F3F4F3E
:100390003E832D83DF91CF9108958FEF9FEF0895D6
:1003A00060E070E0CB01089580E090E00895CB011B
:1003B0000895CF93DF93EC0188899989DC01ED9151
:1003C000FC910480F581E02D0995892BA9F388899A
:1003D0009989DC01ED91FC910680F781E02DDF9198
:1003E000CF910994CF93DF93EC0188899989DC013F
:1003F000ED91FC910480F581E02D0995892BA9F3FD
:1004000088899989DC01ED91FC910084F185E02DCA
:10041000DF91CF910994AF92BF92CF92DF92EF928A
:10042000FF920F931F93CF93DF9300D000D0CDB7EF
:10043000DEB78C015B01C12CD12C7601F8018089DB
:100440009189DC01ED91FC910680F781E02D2983F3
:100450003A834B835C83099529813A814B815C8186
:100460008F3F71F0C216D306E406F5064CF4D501B1
:100470008D935D01BFEFCB1ADB0AEB0AFB0ADECFDF
:10048000C701B6010F900F900F900F90DF91CF91A1
:100490001F910F91FF90EF90DF90CF90BF90AF90A2
:1004A0000895DC0150968D919C915197DC01ED915E
:1004B000FC910480F581E02D099480E090E008959E
:1004C00080E090E0089580E090E0089580E090E082
:1004D00008950895CF93DF93C091BC04D091BD04DB
:1004E000E881F9810480F581E02DCE010995892B01
:1004F000B9F3E881F9810680F781E02DCE01DF9123
:10050000CF9109941F93CF93DF93182FC091BC0410
:10051000D091BD048A3041F4E881F9810190F081E5
:10052000E02D6DE0CE010995E881F9810190F0811F
:10053000E02D612FCE01099521E030E0019711F403
:1005400020E030E0C901DF91CF911F910895089517
:100550000895089508952F923F924F925F926F925F
:100560007F928F929F92AF92BF92CF92DF92EF9243
:10057000FF920F931F93CF93DF93EC018AA89BA860
:10058000ACA8BDA8ECA5FDA5C080D180E280F38019
:1005900027E433E040E85FE3C501B4010E94A61EF2
:1005A0009B01AC01C701B6010E94E3192EA43FA430
:1005B00008A919A91816CCF122E739EF4FE75FE334
:1005C000C501B4010E94A61E9B01AC01C701B60182
:1005D0000E94401E87FD29C04EA85FA868AC79AC78
:1005E000F10180809180A280B38027E433E040E86D
:1005F0005FE3C301B2010E94A61E9B01AC01C501CD
:10060000B4010E94E319181684F022E739EF4FE78E
:100610005FE3C301B2010E94A61E9B01AC01C501AC
:10062000B4010E94401E87FF18C0CAAADBAAECAA28
:10063000FDAAF10180819181A281B3818EAB9FAB34
:10064000A8AFB9AFF80180819181A281B3818AAF4F
:100650009BAFACAFBDAF81E02AC04AAC5BAC6CAC29
:100660007DACF80180809180A280B38027E433E0E4
:1006700040E85FE3C301B2010E94A61E9B01AC01EA
:10068000C501B4010E94E31918167CF222E739EF84
:100690004FE75FE3C301B2010E94A61E9B01AC01BC
:1006A000C501B4010E94401E87FDBFCF80E0DF91ED
:1006B000CF911F910F91FF90EF90DF90CF90BF905F
:1006C000AF909F908F907F906F905F904F903F90F2
:1006D0002F900895089508950895089580E008954D
:1006E0000895089508950895429608950F931F93CD
:1006F000CF93DF938C01EB016F3F8FEF780719F4F5
:1007000080E090E00FC06A3031F46DE0F80180893C
:1007100091890E949E0E6C2FF801808991890E9418
:100720009E0ECE01DF91CF911F910F9108958F9270
:100730009F92BF92CF92DF92EF92FF920F931F93FF
:10074000CF93DF9300D000D0CDB7DEB78C014B0143
:10075000C12CD12C7601C216D306E406F50644F569
:10076000F401B1904F01FAE0BF120EC06DE0F80144
:100770008089918929833A834B835C830E949E0EF2
:100780005C814B813A8129816B2DF80180899189A7
:1007900029833A834B835C830E949E0EFFEFCF1A1E
:1007A000DF0AEF0AFF0A5C814B813A812981D3CFAE
:1007B000CA01B9010F900F900F900F90DF91CF9168
:1007C0001F910F91FF90EF90DF90CF90BF909F907F
:1007D0008F900895FB0120813181FC0131832083BA
:1007E000FB0142815381F901369720813181FC015F
:1007F000E20FF31F51834083089520E132E0FC01B2
:10080000318320832AE132E0358B248B60E272E071
:100810000C94EA03DC01ED91FC9136972081318143
:10082000820F931F0C94FD03CF93DF93EC010E9482
:10083000FD03CE01DF91CF910C94A11DDC01ED9160
:10084000FC91369720813181820F931F0C94140400
:100850000C94A11D089508950C94A11DDC01ED9147
:10086000FC91369720813181820F931F0C942C04C8
:10087000FB0120813181FC0131832083FB01428116
:100880005381F901369720813181FC01E20FF31F7A
:1008900051834083089528E931E0FC0131832083AE
:1008A00022EA31E0318F208F68EA71E00C9438043D
:1008B000DC01ED91FC91369720813181820F931FED
:1008C0000C944B04CF93DF93EC010E944B04CE01B8
:1008D000DF91CF910C94A11DDC01ED91FC91369735
:1008E00020813181820F931F0C9462040C94A11D0E
:1008F000089508950C94A11DDC01ED91FC913697AB
:1009000020813181820F931F0C947A040C94A11DD5
:10091000CF92DF92EF92FF920F931F93CF93DF93CB
:1009200000D000D0CDB7DEB77E0125E0E20EF11C8D
:100930008E010F5F1F4F6C01C01AD10AC601800FD4
:10094000911F0E94641FF80181938F01EE15FF052E
:10095000A9F769817A818B819C810F900F900F900C
:100960000F90DF91CF911F910F91FF90EF90DF904B
:10097000CF9008954F925F926F927F928F929F9245
:10098000AF92BF92CF92DF92EF92FF920F931F939D
:10099000CF93DF9300D000D0CDB7DEB78B014901F4
:1009A0005A01CA01B9010E94AD192B013C015F92A5
:1009B0006F9383E3C82E82E0D82EDF92CF921F93ED
:1009C0000F930E94041A0F900F900F900F900F90AA
:1009D0000F9020E030E44CE156E4C501B4010E94E0
:1009E000E31987FFA1C020E030E04AE754ECC501DD
:1009F000B4010E94401E18160CF096C020E030E0B2
:100A000048EC52E4C501B4010E94E31987FF0AC013
:100A100020E030E040E251ECC501B4010E94401EEC
:100A200018166CF0D8010D900020E9F7CD0104975D
:100A30008017910709F07BC063E472E071C0B201D6
:100A4000550C880B990B0E94471E9B01AC01C501F8
:100A5000B4010E9440192B013C0120E030E040E24B
:100A600051E4C501B4010E94E3199E012F5F3F4F7D
:100A7000790187FF09C020E030E0A901C501B40178
:100A80000E94401E87FF24C061E372E0C8010E94FB
:100A9000F21920E030E040E251E4C301B2010E94CB
:100AA000A61E0E94AD197F936F9383E392E09F93FC
:100AB0008F93FF92EF920E94041AB701C8010E941F
:100AC000F2190F900F900F900F900F900F902FC072
:100AD00061E372E0C8010E94F21920E030E048ECC6
:100AE00052E4C301B2010E94A61E0E94AD195B012F
:100AF0007F936F93DF92CF92FF92EF920E94041A3E
:100B00000F900F900F900F900F900F903AE0A31658
:100B1000B1042CF466E273E0C8010E94F219B70137
:100B2000C8010E94F21903C08EE292E001C0C80120
:100B30000F900F900F900F90DF91CF911F910F9119
:100B4000FF90EF90DF90CF90BF90AF909F908F90ED
:100B50007F906F905F904F9008951F920F920FB605
:100B60000F9211242F933F934F935F936F937F9333
:100B70008F939F93AF93BF93EF93FF938EEB94E08C
:100B80000E94C500FF91EF91BF91AF919F918F910E
:100B90007F916F915F914F913F912F910F900FBE79
:100BA0000F901F9018951F920F920FB60F9211245D
:100BB0002F938F939F93EF93FF93E091CE04F09147
:100BC000CF048081E091D404F091D50482FD12C05D
:100BD00090818091D7048F5F8F732091D804821702
:100BE00051F0E091D704F0E0E254FB4F958F8093F1
:100BF000D70401C08081FF91EF919F918F912F9138
:100C00000F900FBE0F901F90189590E0FC01E458D4
:100C1000FF4F3491FC01E255FF4F2491FC01E65651
:100C2000FF4FE491EE2309F43BC0332339F1333015
:100C300091F038F43130A9F0323001F584B58F7D70
:100C400012C0373091F03830A1F03430B9F48091CF
:100C500080008F7D03C0809180008F77809380001B
:100C60000DC084B58F7784BD09C08091B0008F77A7
:100C700003C08091B0008F7D8093B000F0E0EE0F54
:100C8000FF1FEE58FF4FA591B4918FB7F894EC91E8
:100C9000611103C020952E2301C02E2B2C938FBFF2
:100CA0000895CF93DF93EC0160E08E810E940506EA
:100CB00061E08E810E94050660E08E810E9405063B
:100CC0008BE891E00197F1F7DF91CF910895CF93F1
:100CD000DF9390E0FC01E255FF4F2491FC01E656C2
:100CE000FF4F8491882361F190E0880F991FFC01E8
:100CF000E859FF4FC591D491FC01EE58FF4FA591E3
:100D0000B491611109C09FB7F8948881209582231E
:100D10008883EC912E230BC0623061F49FB7F89466
:100D20003881822F809583238883EC912E2B2C93FE
:100D30009FBF06C08FB7F894E8812E2B28838FBF02
:100D4000DF91CF9108953FB7F89480912F0490914F
:100D50003004A0913104B091320426B5A89B05C09F
:100D60002F3F19F00196A11DB11D3FBFBA2FA92F2A
:100D7000982F8827820F911DA11DB11DBC01CD01A7
:100D800042E0660F771F881F991F4A95D1F7089593
:100D90002FB7F89460912B0470912C0480912D044E
:100DA00090912E042FBF08951F920F920FB60F92AD
:100DB00011242F933F938F939F93AF93BF93809171
:100DC0002B0490912C04A0912D04B0912E0430910D
:100DD0002A0423E0230F2D3720F40196A11DB11D15
:100DE00005C026E8230F0296A11DB11D20932A04F9
:100DF00080932B0490932C04A0932D04B0932E0485
:100E000080912F0490913004A0913104B09132046C
:100E10000196A11DB11D80932F0490933004A093DF
:100E20003104B0933204BF91AF919F918F913F9164
:100E30002F910F900FBE0F901F9018952F923F92F9
:100E40004F925F926F927F928F929F92AF92BF92DA
:100E5000CF92DF92EF92FF920F931F93CF93DF9386
:100E6000CDB7DEB760970FB6F894DEBF0FBECDBF2B
:100E7000DC01DA96BC91B983B11102C0198227C195
:100E8000988B8F870E94C8066E837F838887998797
:100E9000EF85F88982A193A1A4A1B5A14E815F81BC
:100EA00068857985481B590B6A0B7B0B86A597A52E
:100EB000A0A9B1A9481759076A077B07F8F2248D42
:100EC000358DD9018D919D910D90BC91A02D8A8376
:100ED0009B83AC83BD8300A0F1A1E02D9C01AD01FB
:100EE00060817181828193810E9440194B015C0174
:100EF000EF85F88922A533A544A555A56A817B8194
:100F00008C819D810E9440196B017C01AF85B8895D
:100F100050962D913D914D915C915397C501B4012F
:100F20000E94A61EEF85F88926A137A140A551A5EC
:100F30000E9441192B013C01AF85B88996966D93AB
:100F40007D938D939C939997DB96BC91BA87B11151
:100F500018C0EF85F8892485358546855785C701F2
:100F6000B6010E94A61E9B01AC01C301B2010E9402
:100F70004019AF85B88996966D937D938D939C9318
:100F80009997EF85F88946A057A060A471A416A987
:100F900007A930AC21AC212F302F432D522DC30196
:100FA000B2010E94E31918162CF4812F902FA32D63
:100FB000B22D18C0AF85B889D2968D919D910D90B4
:100FC000BC91A02D8B879C87AD87BE879C01AD010E
:100FD000C301B2010E94401E87FF0AC08B859C8519
:100FE000AD85BE85EF85F88986A397A3A0A7B1A795
:100FF000FA85FF2379F0AF85B8891C962D913D9134
:101000004D915C911F97C501B4010E94A61E4B0132
:101010005C0103C0812C912C5401EF85F88924894F
:10102000358946895789C701B6010E94A61E9B01D2
:10103000AC01AF85B88996966D917D918D919C910B
:1010400099970E9440199B01AC01C501B4010E940F
:1010500041196B017C01212F302F432D522D0E940D
:10106000E3191816A4F0EF85F88912A903A934A88A
:1010700025A8212F302F432D522DB601C7010E94E4
:10108000401E87FD04C01C2D0D2D3E2C2F2CAF853E
:10109000B8895E96ED91FC915F97812F902FA32DDB
:1010A000B22D80839183A283B3838A819B81AC819B
:1010B000BD81EF85F88982A793A7A4A7B5A78E81E4
:1010C0009F81A885B98582A393A3A4A3B5A3898191
:1010D00060960FB6F894DEBF0FBECDBFDF91CF9103
:1010E0001F910F91FF90EF90DF90CF90BF90AF9046
:1010F0009F908F907F906F905F904F903F902F9038
:1011000008958F929F92AF92BF92CF92DF92EF920B
:10111000FF920F931F93CF93DF93DC0128E030E021
:1011200081E088248A94912C0FE010E053E2E52EB0
:10113000F12C77EDC72ED12C9C911196ED91FC915D
:101140001297592F5095782F762381F0F894728159
:10115000572352835181592B5183E7012197F1F78E
:101160005281952B92837894F6010FC0F894728186
:10117000572352835181592B5183E4012197F1F771
:101180005281952B92837894F8013197F1F7880F6B
:101190002150310989F6411114C0F8941196ED914E
:1011A000FC91129791818C9180958923818311966E
:1011B000ED91FC91129792818C9180958923828385
:1011C0007894DF91CF911F910F91FF90EF90DF9076
:1011D000CF90BF90AF909F908F900895CF92DF9265
:1011E000EF92FF920F931F93CF93DF931F92CDB790
:1011F000DEB78C01F62E40E065E579830E94810818
:10120000CF2C7981D72E760188E0E80EF11CF6010B
:1012100061916F0140E0C8010E948108CE14DF0493
:10122000B1F70F90DF91CF911F910F91FF90EF9049
:10123000DF90CF900895FC0190810180F281E02D34
:10124000F8948181292F20958223818378948DE7DA
:1012500043E050E0815021F1DA011197F1F730813C
:101260003923C1F3F8948281822382838181892B7F
:1012700081837894ABE7B7E01197F1F7F894818117
:1012800028232183A3E1B1E01197F1F7808198230E
:1012900081E009F080E07894E3E6F6E03197F1F739
:1012A0000895089508950895CF92DF92EF92FF92E6
:1012B0000F931F93CF93DF937C016C0187E0C80EDF
:1012C000D11CC0E0D0E0062F10E0B8010C2E02C007
:1012D000759567950A94E2F76170F60181916F0147
:1012E0000E9405062196C430D10579F7C701DF9128
:1012F000CF911F910F91FF90EF90DF90CF900C94C2
:101300005106CF92DF92EF92FF920F931F93CF93EC
:10131000DF93EC01F62E642F8C810E9405068D81EF
:101320008F3F19F060E00E9405068F850F2D10E0B9
:1013300084FF25C06E0187E0C80ED11CE12CF12C82
:10134000B8010E2C02C0759567950A94E2F761709A
:10135000F60181916F010E940506FFEFEF1AFF0A67
:1013600088E0E816F10461F7CE01DF91CF911F917B
:101370000F91FF90EF90DF90CF900C945106B80141
:1013800084E0759567958A95E1F7CE010E9454092E
:101390006F2DCE01DF91CF911F910F91FF90EF90B4
:1013A000DF90CF900C94540941E00E94810981E0C4
:1013B00090E0089540E00C948109CF92DF92EF9283
:1013C000FF92CF93DF937C016B01EA0166E372E049
:1013D0008EEB94E00E94030FB7018EEB94E00E9425
:1013E000030F60E472E08EEB94E00E94030F0D2C7B
:1013F000000CEE08FF08F7FE0EC06DE28EEB94E0E5
:101400000E949E0E44275527BA014C195D096E09AA
:101410007F092AE003C02AE0B701A6018EEB94E021
:101420000E94BA0E60E472E08EEB94E00E94030F1B
:10143000CE01DF91CF91FF90EF90DF90CF900C9491
:10144000890D3F924F925F926F927F928F929F92FF
:10145000AF92BF92CF92DF92EF92FF920F931F93C2
:10146000CF93DF9300D000D0CDB7DEB74C01A62ECE
:10147000372E0CE0609F002D112410E07C0183E0EA
:10148000B82E3701F70160817181072E000C880B9F
:10149000990B0E94471E69837A838B839C83CE01BC
:1014A00001962C01C12CD12CF20161912F01C601B2
:1014B000800F911F0E946C1FFFEFCF1ADF0A24E0FC
:1014C000C216D10489F7C8010E9488040E94AD1990
:1014D000E2E0EE0EF11CF30120813181261737077F
:1014E000B1F4AB01B80185E492E00E94DD09BA9441
:1014F0000C5F1F4FB110C5CFF401408151816A2D9F
:10150000732D8CE592E00E94DD0981E001C080E04E
:101510000F900F900F900F90DF91CF911F910F912F
:10152000FF90EF90DF90CF90BF90AF909F908F9003
:101530007F906F905F904F903F900895AF92BF92D1
:10154000CF92DF92EF92FF920F931F93CF93DF938F
:101550007C01D62EC72ECCE06C9FC02D1124D0E08C
:101560008C015C0186E0A80EB11CCE010E948804AB
:101570000E94AD19F801619371938F012496EA15C9
:10158000FB0599F7F701408151816D2D7C2D85E494
:1015900092E00E94DD0981E0DF91CF911F910F91D0
:1015A000FF90EF90DF90CF90BF90AF900895CF93D2
:1015B000DF93EB01CC0FDD1FC80FD91F4881598184
:1015C00083E792E00E94DD0968817981072E000C93
:1015D000880B990B0E94471EDF91CF9108958F923F
:1015E0009F92AF92BF92CF92DF92EF92FF920F93B2
:1015F0001F93CF93DF938C01FC01128E118E848593
:1016000095850E949E0AF801C285D3858AAD811115
:1016100030C0EE8DFF8DC080D180E280F380CEA2FD
:10162000DFA2E8A6F9A6EC8DFD8D80819181A281D3
:10163000B3818AA79BA7ACA7BDA78EA89FA8A8AC7B
:10164000B9ACA5019401C701B6010E94E3191816AF
:1016500064F08AA89BA8ACA8BDA8A5019401C70105
:10166000B6010E94401E87FF04C08EA29FA2A8A6BA
:10167000B9A681E08AAFF801808F60E070E08485D0
:1016800095850E94D70A0E94AD19F801218D328DEF
:10169000AB01B90187E892E0DF91CF911F910F91E3
:1016A000FF90EF90DF90CF90BF90AF909F908F9082
:1016B0000C94DD09EF92FF920F931F93CF93DF936A
:1016C000CDB7DEB760970FB6F894DEBF0FBECDBFC3
:1016D0008C01FC0185A58F9384A58F9383E392E011
:1016E0009F938F93CE0101967C019F938F930E94CD
:1016F000041AB701C80142960E94FD190F900F907D
:101700000F900F900F900F9060960FB6F894DEBF79
:101710000FBECDBFDF91CF911F910F91FF90EF9042
:101720000895DC019A96ED91FC919B97208131817F
:101730009D963C932E939C970C945A0BDC019C969F
:101740002D913C919D979A96ED91FC919B973183B9
:1017500020830C945A0BFC0124A535A52150310996
:1017600035A724A70C945A0BFC0124A535A52F5F9F
:101770003F4F35A724A70C945A0BEF92FF920F937B
:101780001F93CF93DF93CDB7DEB760970FB6F89472
:10179000DEBF0FBECDBF7C01DC019E96ED91FC91BA
:1017A0009F97208131814281538101E010E0BE0189
:1017B0006F5F7F4F0E94BA04BE016F5F7F4FC7010A
:1017C00042960E94FD1960960FB6F894DEBF0FBED8
:1017D000CDBFDF91CF911F910F91FF90EF900895B2
:1017E0008F929F92AF92BF92CF92DF92EF92FF9231
:1017F000CF93DF93EC0188A899A8AAA8BBA8EEA56F
:10180000FFA5C080D180E280F38027E433E040E888
:101810005FE3C501B4010E94A61E9B01AC01C70194
:10182000B6010E94E319181694F022E739EF4FE74A
:101830005FE3C501B4010E94A61E9B01AC01C70174
:10184000B6010E94401E87FD02C080E008C0C8AA01
:10185000D9AAEAAAFBAACE010E94BD0B81E0DF91C2
:10186000CF91FF90EF90DF90CF90BF90AF909F907F
:101870008F900895EF92FF920F931F93CF93DF9372
:10188000CDB7DEB76B970FB6F894DEBF0FBECDBFF6
:101890007C01DC019C96ED91FC919D97208131812A
:1018A0004281538101E010E0BE016F5F7F4F0E94D3
:1018B000BA04D7019E96ED91FC919F9720813181CA
:1018C00042815381BE01695E7F4FC7010E94BA0405
:1018D000D701D096ED91FC91D19720813181428141
:1018E0005381BE016E5E7F4FC7010E94BA046BE94F
:1018F00072E0CE0101960E94F219BE01695E7F4F2F
:10190000CE0101960E94F2196BE972E0CE010196B8
:101910000E94F219BE016E5E7F4FCE0101960E94B9
:10192000F219BE016F5F7F4FC70142960E94FD19F9
:101930006B960FB6F894DEBF0FBECDBFDF91CF918F
:101940001F910F91FF90EF900895CF93DF93EC01DB
:101950000E943A0CCE014296DF91CF910895CF9329
:10196000DF93EC0184E090E00E940C1DFC011182E9
:101970001082D383C283DF91CF910895EF92FF92BB
:101980000F931F93CF93DF93EC01623018F08F8594
:1019900088608F876B8B1C8A80E48D8B80E18E8BB7
:1019A00080E58F8B61E08C810E9467068D818F3F7F
:1019B00019F061E00E94670661E08E810E9467066F
:1019C0007E0187E0E80EF11C00E010E08F8584FDC9
:1019D00003C084E090E002C088E090E00817190797
:1019E0004CF461E0F70181917F010E9467060F5F6F
:1019F0001F4FECCF8BE39DE00197F1F760E08C8106
:101A00000E94050660E08E810E9405068D818F3F51
:101A100019F060E00E9405066F8564FD1DC063E05B
:101A2000CE010E9454090BE416E4C8010197F1F7B6
:101A300063E0CE010E945409C8010197F1F763E009
:101A4000CE010E94540983E592E00197F1F762E02C
:101A5000CE010E94540916C06062CE010E94DA09CC
:101A60008BE496E40197F1F76F856062CE010E94E6
:101A7000DA0983E592E00197F1F76F856062CE01A4
:101A80000E94DA096F856062CE010E94DA0984E063
:101A9000888B6CE0CE010E94DA0961E0CE010E94E1
:101AA000DA098BE39FE10197F1F782E0898B66E029
:101AB000CE01DF91CF911F910F91FF90EF900C9489
:101AC000DA09EEEBF4E0A089B18982E08C93A48579
:101AD000B5851C92A685B7858FEC8C93108EA48952
:101AE000B58986E08C93A289B3898C9180618C93AF
:101AF000A289B3898C9188608C93A289B3898C91D7
:101B000080688C930288F389E02D80818F7D8083AB
:101B10000895CF92DF92EF92FF92CF93DF936C0103
:101B2000990FEE08FF08F7FE16C06DE28EEB94E009
:101B30000E949E0EEC0144275527BA014C195D09FD
:101B40006E097F092AE08EEB94E00E94BA0E7C01B8
:101B5000EC0EFD1E08C02AE0B701A6018EEB94E052
:101B60000E94BA0E7C016DEA72E08EEB94E00E9456
:101B7000A50E8E0D9F1DDF91CF91FF90EF90DF900E
:101B8000CF90089520919B0430919C048217930775
:101B900010F00E94ED19880F991F20919704309141
:101BA0009804820F931F0895CF92DF92EF92FF92D5
:101BB0000F931F93CF93DF936C017A018B01C0E0E9
:101BC000D0E0CE15DF0589F0D8016D918D01D601E9
:101BD000ED91FC910190F081E02DC6010995892BD2
:101BE00011F47E0102C02196ECCFC701DF91CF91A5
:101BF0001F910F91FF90EF90DF90CF9008950E947A
:101C0000ED19CF92DF92EF92FF920F931F93CF9334
:101C1000DF9300919B0410919C04E80121960C171E
:101C20001D0708F057C07C018091990490919A0497
:101C30008C179D07A0F59801275F3F4F82179307E8
:101C400070F5C0909704D090980430939A04209334
:101C50009904C901880F991F0E940C1D9093980444
:101C600080939704D60140E050E040175107A1F05F
:101C7000E0919704F09198049A01220F331FE20F2C
:101C8000F31F309729F08D919C9111979183808358
:101C90004F5F5F4F1296E9CFC6010E94A11D809150
:101CA0009B0490919C049C01220F331F8C179D076D
:101CB000A0F4E0919704F0919804E20FF31F30979D
:101CC00029F0D7014D915C915183408301962E5F9D
:101CD0003F4FECCFC017D10720F4D0939C04C093A2
:101CE0009B04DF91CF911F910F91FF90EF90DF90B8
:101CF000CF900895CF93DF9320919B0430919C0463
:101D000082179307B8F4EC0180919E0490919F0490
:101D10000E94C20DDC018D919C91DC01ED91FC9142
:101D20000084F185E02D0995D0939F04C0939E0413
:101D300081E001C080E0DF91CF910895DC01ED9159
:101D4000FC910190F081E02D09946115710579F005
:101D5000FB0101900020E9F73197AF01461B570BBB
:101D6000DC01ED91FC910280F381E02D099480E08B
:101D700090E008954F925F926F927F92EF92FF9260
:101D80000F931F93CF93DF93CDB7DEB7A1970FB615
:101D9000F894DEBF0FBECDBF7C01FA01CB0119A2C2
:101DA000223008F42AE08E010F5D1F4F422E512C85
:101DB000612C712CBF01A30192010E947A1FF901CD
:101DC000CA01015011096A3014F4605D01C0695CF8
:101DD000D8016C93232B242B252B61F7B801C70165
:101DE0000E94A50EA1960FB6F894DEBF0FBECDBF20
:101DF000DF91CF911F910F91FF90EF907F906F90A7
:101E00005F904F9008950C94A50E61E080EA94E0F5
:101E10000E94DA098BE39FE10197F1F780919E041C
:101E200090919F040E94C20DDC016D917C916E5FC8
:101E30007F4F80EA94E00E94030FE091B304E23008
:101E400010F4E15001C0E1E0F0E0E955FB4F658599
:101E5000606880EA94E00E94DA0980919E04909183
:101E60009F040E94C20DFC0180819181DC01ED91F3
:101E7000FC910190F081E02D0995BC0180EA94E08D
:101E80000C94030FCF93DF93CDB7DEB72E970FB629
:101E9000F894DEBF0FBECDBF789484B5826084BD58
:101EA00084B5816084BD85B5826085BD85B581605E
:101EB00085BD80916E00816080936E0010928100DC
:101EC0008091810082608093810080918100816097
:101ED0008093810080918000816080938000809158
:101EE000B10084608093B1008091B00081608093E4
:101EF000B00080917A00846080937A0080917A00AB
:101F0000826080937A0080917A00816080937A0069
:101F100080917A00806880937A001092C1001092BC
:101F20008D0410928E0410928F04109290041092DF
:101F30004B0410924C0410924D0410924E040E94D7
:101F4000C8066B017C014B015C0128EB820E2BE083
:101F5000921EA11CB11C0E94C8066C157D058E0541
:101F60009F0528F086169706A806B906A0F78EEBFF
:101F700094E090938C0480938B040E94610D0E94E6
:101F8000C80660934B0470934C0480934D04909367
:101F90004E046EE972E080918B0490918C040E9453
:101FA000030F0E94C8066B017C014B015C013AE003
:101FB000830E911CA11CB11C0E94C8066C157D05E6
:101FC0008E059F0528F086169706A806B906A0F785
:101FD000DD24D394D0925F040E94610DE0919104BE
:101FE000F0919204618D728D40E050E080EB92E0C0
:101FF0000E94DD09E0909104F0909204D701599677
:102000006D917C915A9740E050E08FEB92E00E94F6
:10201000DD098CE390E00E940C1D8C01C7018796BE
:10202000F801978F868F0897958F848F049691A3D8
:1020300080A312AE12AA13AA14AA15AA80E090E0F7
:10204000AFE7B3E486AB97ABA0AFB1AF84E690E067
:10205000A0E0B0E086A797A7A0ABB1AB118E108E21
:1020600081E090E0938F828FD3AE80E090E0A0E299
:10207000B2E480839183A283B38340E050E060E0C8
:102080007FE3448355836683778340E050E060E8D4
:102090007FE3408751876287738784879587A68708
:1020A000B7878DEC9CECACE4BDE3808B918BA28B6D
:1020B000B38B80E090E0A0E2B1E4848B958BA68B9B
:1020C000B78B0E94C806D8019E968D909D90AD90CA
:1020D000BC90D197DC01CB0188199909AA09BB09E9
:1020E000F80182A393A3A4A3B5A3D7011B961C93C5
:1020F0000E931A976D917C91072E000C880B990B0B
:102100000E94471E4B015C0120E030E0A9010E94C3
:10211000401E18160CF05AC0F80112AA13AA14AAED
:1021200015AA86AA97AAA0AEB1AE82AD882309F4FB
:102130004DC0C68CD78CF601408051806280738080
:10214000A5019401C301B2010E94E31918163CF4E1
:10215000D6018D929D92AD92BC9213970EC020E055
:1021600030E0A901C301B2010E94401E87FF05C0F3
:10217000F6011082118212821382D80196964D9038
:102180005D906D907C909997D6968D909D90AD9036
:10219000BC90D997A5019401C301B2010E94E31933
:1021A00018167CF0D801D2968D909D90AD90BC9081
:1021B000D597A5019401C301B2010E94401E87FF7B
:1021C00005C0F80186A297A2A0A6B1A661E0D7013A
:1021D00016968C910E9467068EE090E00E940C1D7E
:1021E0006C01F7010085118560E0802F0E94670671
:1021F0001127F801E255FF4FE491D601EC93F80165
:10220000E656FF4FE491F0E0EE0FFF1FE057FF4F5F
:1022100085919491F60192838183138615861486A5
:102220003B96C60103961292E817F907E1F7D7012A
:102230001F96DC92CE921E9786E090E00E940C1DC5
:10224000F7019587848760E070E00E949E0AD701BD
:102250005A961C921E925997F701138E148E158E62
:10226000168E88E2808B8FEF818B8CE9828B8BECD2
:10227000838B80E6848B86E1858B83E0868B82E787
:10228000878B40E050E060E070E088ED92E00E94D3
:10229000DD09E0919104F0919204618D728D40E02E
:1022A00050E08FEE92E00E94DD094BE150E06DE2DC
:1022B00070E08FEF92E00E94DD090DE210E01A83DA
:1022C00009838BE190E09C838B838FE190E09E8378
:1022D0008D8360E070E09E012F5F3F4F6901C9016F
:1022E0000E94210A4AE150E06DE270E08FEF92E037
:1022F0000E94DD091A8309838AE190E09C838B8325
:102300008DE190E09E838D8361E070E0C6010E94C4
:10231000210A41E250E060E270E08FEF92E00E941B
:10232000DD0980E290E09A83898381E290E09C83DA
:102330008B8382E290E09E838D8362E070E0C60131
:102340000E94210A60E070E0C6010E94D70A0E9444
:10235000AD19CB010E94890D60E070E0C6010E94BA
:102360009E0A60E070E0C6010E94D70A0E94AD1983
:10237000CB010E94890DE0919104F0919204618D4E
:10238000728D40E050E08CE093E00E94DD0981E036
:1023900090E00E94AF0C7C0181E090E00E94AF0CC5
:1023A0005C0181E090E00E94AF0C4C0181E090E084
:1023B0000E94AF0C3C018AE290E00E940C1D8C014F
:1023C0002AE231E0DC012D933D93CD0169E173E018
:1023D0000E94FD1968E273E0C80142960E94FD194F
:1023E000F80173A262A295A284A2B7A2A6A2F1A646
:1023F000E0A61E870D87CE010D960E94010E82E099
:1024000090E00E94AF0C8C0182E090E00E94AF0C43
:102410007C0182E090E00E94AF0C5C0182E090E0E1
:102420000E94AF0C4C0184E390E00E940C1D3C0123
:102430008AE091E0D3018D939C9380E090E0A0E04E
:10244000BFE3F30182A793A7A4A7B5A785E4482E0D
:1024500084E0582E57A646A668E373E0C3010296AF
:102460000E94FD19D30193969C928E929297959615
:10247000BC92AE9294979796FC92EE92969799960C
:102480001C930E939897C3010E94BD0B7E866D86A8
:10249000CE010D960E94010E84E090E00E940C1D7A
:1024A0007C0103E010E0FC011183008313830283AD
:1024B00084E090E00E940C1D5C01DC0111961C93ED
:1024C0000E9313961C930E93129784E090E00E9453
:1024D0000C1D4C0182E090E0F40191838083138213
:1024E000128284E090E00E940C1D3C0181E090E0AB
:1024F000D30111969C938E9313961C921E92129761
:102500008EE290E00E940C1D8C018AE191E0F801BE
:10251000918380838AEB94E093A782A767E473E0BA
:10252000C80102960E94FD196FEA72E0C801429646
:102530000E94FD19D80193967C926E92929795967F
:102540009C928E9294979796BC92AE9296979996FB
:10255000FC92EE9298979A96ED91FC919B978081D0
:1025600091819D969C938E939C97C8010E945A0BD3
:102570001E870D87CE010D960E94010E80E090E02F
:102580000E94AF0C7C0180E090E00E94AF0C5C01E7
:1025900080E090E00E94AF0C4C0180E090E00E944F
:1025A000AF0C3C018EE390E00E940C1D8C018AE38D
:1025B00091E0F8019183808384EF91E093A782A753
:1025C00055A644A681E494E097A786A78DE394E0FE
:1025D00091AB80AB65E573E0C80102960E94FD19DE
:1025E0006FEA72E0C80142960E94FD19D8019396E5
:1025F0007C926E92929795969C928E9294979796D3
:10260000BC92AE9296979996FC92EE929897C801DA
:102610000E943A0C1E870D87CE010D960E94010E76
:102620000E94C806672B682B692B41F40E94C806DC
:10263000623071058105910508F41BC10E94C8062E
:1026400060933704709338048093390490933A046C
:1026500000913304109134042091350430913604F4
:10266000601771078207930740F4609333047093F7
:102670003404809335049093360400913304109110
:10268000340420913504309136044B015C01801AEA
:10269000910AA20AB30A950184010A3F1105210596
:1026A000310508F4E6C060933304709334048093DA
:1026B00035049093360484EF91E0A0E0B0E080937D
:1026C000570490935804A0935904B0935A0410925D
:1026D0005B0410925C0410925D0410925E04809181
:1026E0004F0490915004A0915104B09152048093F2
:1026F000530490935404A0935504B09356040E943D
:10270000C80660934F0470935004809351049093D3
:1027100052040E94C80660934B0470934C0480934B
:102720004D0490934E040E94C8064B015C0166E67E
:1027300073E080918B0490918C040E94030F2AE037
:1027400041E050E060E070E080918B0490918C0457
:102750000E94BA0E6DE673E080918B0490918C0418
:102760000E94030F2AE0B501A40180918B0490918F
:102770008C040E94BA0E6FE673E080918B049091F6
:102780008C040E94030F80914F0490915004A091FB
:102790005104B0915204B501A401481B590B6A0BB6
:1027A0007B0B2AE080918B0490918C040E94BA0EDE
:1027B0006FE673E080918B0490918C040E94030F6C
:1027C00040914F0450915004609151047091520413
:1027D0008091530490915404A0915504B0915604F3
:1027E000481B590B6A0B7B0B2AE080918B0490915C
:1027F0008C040E94BA0E61E773E080918B04909183
:102800008C040E94030F0E94C806AB01BC012AE0A1
:1028100080918B0490918C040E94BA0E00918B04DD
:1028200010918C0463E773E0C8010E94A50E6DEA65
:1028300072E0C8010E94A50E0E94C8064B015C010F
:102840002B013C0125E0420E511C611C711C0E94B1
:10285000C806681579058A059B0508F049C30E94DA
:10286000C80660934F047093500480935104909372
:1028700052040E94050FE0919104F0919204618D41
:10288000728D40E050E08CE093E00E94DD09B3E2FD
:102890002B2E312CE0919104F0919204618D728D78
:1028A00040E050E08AE793E00E94DD0980E48093F5
:1028B0007C0080917A00806480937A0080917A0015
:1028C00086FDFCCF809178002091790090E0922BDA
:1028D00090933C0480933B04893E33E09307B4F427
:1028E000823391050CF40BC38A3F91050CF40BC3A2
:1028F000823C41E094070CF409C38A3852E0950702
:102900000CF408C3823593400CF408C3A5E0EA2E0A
:10291000F12C80919E0490919F040E94C20DFC01B5
:1029200080819181DC01ED91FC910284F385E02DA1
:10293000099581110E94050F009191041091920454
:102940000E94C806F801238D348DAB01B9018BE9D3
:1029500093E00E94DD09D8015B964D905D906D90EB
:102960007C905E97B8EC4B0E511C611C711C0E9450
:10297000C806641575058605970508F470C10E94A0
:10298000C806F801638F748F858F968F868597852B
:102990000E941B095801F0E1AF0EB11CB501D8012E
:1029A0001E968D919C911F970E94EE0840E06EEB61
:1029B000F801868597850E9481084601F9E05F2E1F
:1029C0005C0CD8011E962D913C911F9788E090E0F9
:1029D0007724739470E0F90160810180F281E02D29
:1029E000F8944181462B41834281662E60944621B2
:1029F000428347E050E0DA011197F1F74181642208
:102A00006182D1011197F1F740817894EFECF0E009
:102A10003197F1F7642309F07729770C0197D9F6FC
:102A2000F40171934F015E12CCCF6A80712C762C29
:102A300066248981682A8D81807619F4F8EF6F22E7
:102A400009C0803219F42CEF622204C0803411F4E2
:102A5000E89460F8D80159966D917C915A9740E0BE
:102A600050E080EB93E00E94DD09F80186859785B0
:102A70000E941B09B501D8011E968D919C911F974C
:102A80000E94EE0841E064E4F801868597850E9483
:102A90008108B301770C880B990B0E94471E20E038
:102AA00030E040E85DE30E94A61ED8015F966D937A
:102AB0007D938D939C93929758968C9158978823E9
:102AC00009F4AFC01A968D919C911B970E941E0726
:102AD000F801818D928D009719F00197A1F02BC01C
:102AE000478C50A061A072A060E070E0848595855D
:102AF0000E94D70A9B01AC01C301B2010E94E319F5
:102B00001816CCF412C0478C50A061A072A061E0EE
:102B100070E0848595850E94D70A9B01AC01C301B2
:102B2000B2010E94401E87FF06C0F801818D928D80
:102B30000196928F818FD8011A968D919C911B9747
:102B40000E941E07F801618D728D848595850E9413
:102B5000D70AD80193966D937D938D939C93969706
:102B60000E94C8062B013C01F80182819381A48157
:102B7000B58120813181A901032E000C660B770BF2
:102B800053014201881A990AAA0ABB0A4815590535
:102B90006A057B0568F4480F591F6A1F7B1F428333
:102BA000538364837583B90186EC93E00E94DD0949
:102BB000F80182819381A481B58153014201881A71
:102BC000990AAA0ABB0AC501B4010E94451E9B01CD
:102BD000AC01D80197966D917D918D919C919A97BA
:102BE0000E94E31918166CF461E0F80186810E94D6
:102BF0000506D80116966D917C91179741E050E03B
:102C00000CC060E0F80186810E940506D801169686
:102C10006D917C91179740E050E081ED93E00E9428
:102C2000DD09F801878D90A1A1A1B2A1809345048F
:102C300090934604A0934704B093480467A170A5FD
:102C400081A592A50E94AD19D80159962D913C916C
:102C50005A97AB01B9018BE993E00E94DD094090DE
:102C60004504509046046090470470904804A301C6
:102C70009201C301B2010E94E819882319F068ED9E
:102C800073E01AC053014201E894B7F82FEF3FEF09
:102C90004FE75FE7C501B4010E94E819811111C037
:102CA0002FEF3FEF4FE75FE7C501B4010E94401EE1
:102CB00018163CF46CED73E08EEB94E00E94A50EC8
:102CC0007EC02FEF3FEF4FE75FE4C301B2010E94E8
:102CD000E31918161CF460EE73E0EECF2FEF3FEF10
:102CE0004FE75FECC301B2010E94401E87FDF3CFA6
:102CF00020E030E0A901C301B2010E94401E87FF1D
:102D000009C06DE28EEB94E00E949E0E77FA7094FB
:102D100077F870942AE037ED43EA5BE3C301B20130
:102D20000E9441194B015C010E94B4192B013C0126
:102D30000E94451E9B01AC01C501B4010E944019CF
:102D40004B015C012AE0B301A2018EEB94E00E94EA
:102D5000BA0E61E372E08EEB94E00E94A50E20E0D3
:102D600030E040E251E4C501B4010E94A61E2B01EF
:102D70003C010E94B4194B01A12CB12C2AE0B501F1
:102D8000A4018EEB94E00E94BA0EC501B4010E942A
:102D9000451E9B01AC01C301B2010E94401920E015
:102DA00030E040E251E40E94A61E0E94B419AB013B
:102DB00060E070E02AE08EEB94E00E94BA0E6DEACB
:102DC00072E08EEB94E00E94A50EE0919104F091E8
:102DD0009204808D811111C040E050E0B70184EE73
:102DE00093E00E94DD096091BA047091BB04809168
:102DF0009104909192040E94EF0A8091B8049091FE
:102E0000B9042091BA043091BB0428173907C9F0DE
:102E10009093BB048093BA0483E090E00E947A0E02
:102E20006091BA047091BB048091910490919204D6
:102E30000E94EF0A40E050E0B70180E094E00E9479
:102E4000DD09E0919104F0919204618D728D40E072
:102E500050E089E194E00E94DD09E0919104F09155
:102E60009204618D728D848595850E94D70A609346
:102E70004104709342048093430490934404E0918E
:102E80009104F091920487A190A5A1A5B2A5809389
:102E90003D0490933E04A0933F04B09340040E94ED
:102EA000A3064B015C0178EC472E512C612C712C50
:102EB0000E94A306DC01CB0188199909AA09BB0964
:102EC000883E9340A105B10558F0B1E04B1A510876
:102ED00061087108E8EE8E0EE3E09E1EA11CB11C95
:102EE000411451046104710419F70E944F01D2CCBE
:102EF000461657066806790608F0A9CCB0CC63E000
:102F0000E62EF12C0EC0E12CF12C0BC0EE24E39444
:102F1000F12C07C042E0E42EF12C03C034E0E32E94
:102F2000F12C80919E0490919F040E94C20DDC01BF
:102F30008D919C91F7017196EE0FFF1FE80FF91F1D
:102F40000190F081E02D208131812130310539F46B
:102F5000DC01ED91FC910280F381E02D0CC0223068
:102F60003105A4F022303105C1F4DC01ED91FC9172
:102F70000480F581E02D09950E94050F40E050E0A6
:102F8000B7018DE893E00E94DD09C3CC232BA1F7A4
:102F9000828193810E947A0EEFCF2330310561F751
:102FA000DC01ED91FC910680F781E02DE4CF0F93D9
:102FB0001F93CF93DF93C0919704D0919804009111
:102FC0009B0410919C04000F111F0C0F1D1FFE018C
:102FD000C017D10731F02296808191810E94A11DF6
:102FE000F6CF80919704909198040E94A11D8BE5E3
:102FF00095E00E944B0489E895E0DF91CF911F9105
:103000000F910C94FD03FF920F931F93CF93DF93C7
:10301000AEEBB4E013961C921E92129748EE53E06A
:1030200060E070E014964D935D936D937C931797D9
:1030300082E791E011969C938E9385EC90E01D962B
:103040009C938E931C9784EC90E01F969C938E9398
:103050001E9780EC90E051969C938E93509781EC54
:1030600090E053969C938E93529782EC90E0559605
:103070009C938E93549786EC90E057969C938E93F6
:10308000569759961C9259975A961C925A975B9646
:103090001C925B975C961C925C97E9E4F4E01682C4
:1030A0001782108611861286138614861586168658
:1030B0001786108A118A128A138A148A158AE9E8F7
:1030C000F5E0C1E2D0E0D08FC78B118E128E138E47
:1030D00046E050E060E070E0448F558F668F778F58
:1030E00010A211A212A213A220E224A316A215A2DA
:1030F00011A68BE895E090A787A380E192E09183E9
:1031000080838AE192E0958B848B168215821086EB
:103110001782128611861486138616861586108AE3
:1031200017868EEE91E093838283B38BA28B30E17E
:10313000318BEBE5F5E0D48FC38F158E168E178E8D
:1031400040A351A362A373A314A215A216A217A2AF
:1031500020A712A611A615A6128213821482158228
:1031600021E635E034A723A728E931E03183208325
:1031700022EA31E0318F208F128611861486138661
:1031800016861586108A1786128A118A148A138A5F
:1031900097838683B78BA68B88E0F82EF58AB09349
:1031A000BD04A093BC046AE672E082E892E00E944B
:1031B000A51C8091BA049091BB049093B9048093AC
:1031C000B804C3E9D4E080E190E09983888302E009
:1031D00010E01B830A8388E090E09F838E8319862A
:1031E000188680E190E00E940C1D9D838C831C86D4
:1031F0001B86188A1F868AE292E09E878D87F98A4D
:103200008FEF8A8B89E08B8B84E08C8B85E08D8BB4
:1032100086E08E8B87E08F8B188E198E1A8E1B8E10
:103220001C8E61E080EA94E00E94BE0C62E080EABD
:1032300094E00E94BE0C8BE290E00E940C1DFC0109
:1032400088E893E19183808312821382148215822D
:103250008FE090E09783868311870087128E118E0E
:10326000F0939204E0939104DF91CF911F910F911D
:10327000FF900895EE0FFF1F0590F491E02D099443
:103280005058BB27AA270E9458190C942A1F0E9445
:103290001C1F38F00E94231F20F039F49F3F19F4BF
:1032A00026F40C94191F0EF4E095E7FB0C94131F01
:1032B000E92F0E943B1F58F3BA1762077307840770
:1032C000950720F079F4A6F50C945D1F0EF4E095B7
:1032D0000B2EBA2FA02D0B01B90190010C01CA01D0
:1032E000A0011124FF27591B99F0593F50F4503E7B
:1032F00068F11A16F040A22F232F342F4427585F6D
:10330000F3CF469537952795A795F0405395C9F784
:103310007EF41F16BA0B620B730B840BBAF091503C
:10332000A1F0FF0FBB1F661F771F881FC2F70EC0DB
:10333000BA0F621F731F841F48F4879577956795AE
:10334000B795F7959E3F08F0B0CF9395880F08F09A
:103350009927EE0F9795879508950E94B419689460
:10336000B1110C945E1F08950E94431F88F09F576F
:1033700098F0B92F9927B751B0F0E1F0660F771F99
:10338000881F991F1AF0BA95C9F714C0B13091F08F
:103390000E945D1FB1E008950C945D1F672F782F88
:1033A0008827B85F39F0B93FCCF386957795679554
:1033B000B395D9F73EF490958095709561957F4FC0
:1033C0008F4F9F4F08950E94821E08F48FEF08953B
:1033D0000E94821E880B990B089581E090E0F8947A
:1033E0000C94D31FFB01DC010D900020E9F711972D
:1033F00001900D920020E1F70895FB01DC0101909E
:103400000D920020E1F70895AEE0B0E0EAE0FAE1C5
:103410000C94AA1F0D891E8986E08C831A83098368
:103420008FEF9FE79E838D83AE01475E5F4F6F896D
:10343000788DCE0101960E94271A2F813885F801D8
:10344000E20FF31F10822E96E4E00C94C61FACE04E
:10345000B0E0EDE2FAE10C949C1F7C016B018A0163
:10346000FC0117821682838181FFBDC1CE010196C6
:103470004C01F7019381F60193FD859193FF8191B2
:103480006F01882309F4ABC1853239F493FD85912E
:1034900093FF81916F01853229F4B70190E00E947A
:1034A0000F1CE7CF512C312C20E02032A0F48B32BE
:1034B00069F030F4803259F0833269F420612CC015
:1034C0008D3239F0803339F4216026C022602460C7
:1034D00023C0286021C027FD27C030ED380F3A30C7
:1034E00078F426FF06C0FAE05F9E300D1124532EBB
:1034F00013C08AE0389E300D1124332E20620CC098
:103500008E3221F426FD6BC1206406C08C3611F486
:10351000206802C0883641F4F60193FD859193FF3F
:1035200081916F018111C1CF982F9F7D9554933068
:1035300028F40C5F1F4FFFE3F9830DC0833631F091
:10354000833771F0833509F05BC022C0F8018081B8
:1035500089830E5F1F4F44244394512C540115C09E
:103560003801F2E06F0E711CF801A080B18026FFD7
:1035700003C0652D70E002C06FEF7FEFC5012C879F
:103580000E94041C2C0183012C852F77222E17C04A
:103590003801F2E06F0E711CF801A080B18026FFA7
:1035A00003C0652D70E002C06FEF7FEFC5012C876F
:1035B0000E94F91B2C012C852068222E830123FCFC
:1035C0001BC0832D90E048165906B0F4B70180E285
:1035D00090E00E940F1C3A94F4CFF50127FC8591EE
:1035E00027FE81915F01B70190E00E940F1C31100E
:1035F0003A94F1E04F1A51084114510471F7E5C0B3
:10360000843611F0893639F5F80127FF07C060814B
:103610007181828193810C5F1F4F08C0608171812D
:10362000072E000C880B990B0E5F1F4F2F76722E02
:1036300097FF09C090958095709561957F4F8F4F4A
:103640009F4F2068722E2AE030E0A4010E94471CA0
:10365000A82EA81844C0853729F42F7EB22E2AE060
:1036600030E025C0F22FF97FBF2E8F36C1F018F45D
:10367000883579F0B4C0803719F0883721F0AFC0B1
:103680002F2F2061B22EB4FE0DC08B2D8460B82E7A
:1036900009C024FF0AC09F2F9660B92E06C028E0FB
:1036A00030E005C020E130E002C020E132E0F80166
:1036B000B7FE07C060817181828193810C5F1F4FCB
:1036C00006C06081718180E090E00E5F1F4FA40111
:1036D0000E94471CA82EA818FB2DFF777F2E76FE90
:1036E0000BC0372D3E7FA51450F474FE0AC072FC47
:1036F00008C0372D3E7E05C0BA2C372D03C0BA2C2A
:1037000001C0B52C34FF0DC0FE01EA0DF11D808112
:10371000803311F4397E09C032FF06C0B394B394EC
:1037200004C0832F867809F0B39433FD13C030FFB3
:1037300006C05A2CB31418F4530C5B18B32CB314F2
:1037400068F4B70180E290E03C870E940F1CB394BC
:103750003C85F5CFB31410F43B1801C0312C34FF75
:1037600012C0B70180E390E03C870E940F1C3C85AB
:1037700032FF17C031FD03C088E790E002C088E542
:1037800090E0B7010CC0832F867859F031FF02C05A
:103790008BE201C080E237FD8DE2B70190E00E942C
:1037A0000F1CA51438F4B70180E390E00E940F1CB1
:1037B0005A94F7CFAA94F401EA0DF11D8081B70164
:1037C00090E00E940F1CA110F5CF332009F451CED8
:1037D000B70180E290E00E940F1C3A94F6CFF70107
:1037E0008681978102C08FEF9FEF2C96E2E10C94C7
:1037F000B81FFC010590615070400110D8F780950A
:1038000090958E0F9F1F0895FC01615070400190AC
:103810000110D8F7809590958E0F9F1F08950F93F4
:103820001F93CF93DF93FB01238121FD03C08FEF13
:103830009FEF28C022FF16C0468157812481358121
:103840004217530744F4A081B1819D012F5F3F4F80
:10385000318320838C93268137812F5F3F4F3783BD
:10386000268310C0EB01092F182F0084F185E02D6D
:103870000995892BE1F68E819F8101969F838E8326
:10388000812F902FDF91CF911F910F910895FA0111
:10389000AA27283051F1203181F1E8946F936E7F8F
:1038A0006E5F7F4F8F4F9F4FAF4FB1E03ED0B4E080
:1038B0003CD0670F781F891F9A1FA11D680F791FC1
:1038C0008A1F911DA11D6A0F711D811D911DA11DD2
:1038D00020D009F468943F912AE0269F11243019E2
:1038E000305D3193DEF6CF010895462F4770405D7D
:1038F0004193B3E00FD0C9F7F6CF462F4F70405D2C
:103900004A3318F0495D31FD4052419302D0A9F786
:10391000EACFB4E0A6959795879577956795BA9580
:10392000C9F700976105710508959B01AC010A2E46
:1039300006945795479537952795BA95C9F7620F1D
:10394000731F841F951FA01D08950F931F93CF937E
:10395000DF93009731F46115710519F480E090E070
:103960003AC08B01EC016EE070E081E090E00E94D3
:10397000F01CFC01892B91F380E88383011511056C
:1039800071F01387028781E883838091B30590915A
:10399000B405892B21F4F093B405E093B305209787
:1039A000C9F0D187C0878381826083838091B50508
:1039B0009091B605892B71F4F093B605E093B505A7
:1039C0008091B7059091B805892B21F4F093B80543
:1039D000E093B705CF01DF91CF911F910F9108952B
:1039E0000F931F93CF93DF93869F8001879F100DC6
:1039F000969F100D1124C8010E940C1DEC01009728
:103A000029F0A80160E070E00E94391ECE01DF912C
:103A1000CF911F910F910895CF93DF93823091053D
:103A200010F482E090E0E091BB05F091BC0520E04D
:103A300030E0C0E0D0E0309711F14081518148176B
:103A40005907C0F04817590761F482819381209784
:103A500019F09B838A832BC09093BC058093BB0590
:103A600026C02115310519F04217530718F49A01A1
:103A7000BE01DF01EF010280F381E02DDCCF2115D3
:103A8000310509F1281B390B2430310590F41296C9
:103A90008D919C9113976115710521F0FB01938322
:103AA000828304C09093BC058093BB05FD013296D0
:103AB00044C0FD01E20FF31F81939193225031091D
:103AC0002D933C933AC02091B9053091BA05232B30
:103AD00041F420910201309103013093BA05209303
:103AE000B90520910001309101012115310541F402
:103AF0002DB73EB74091040150910501241B350BB1
:103B0000E091B905F091BA05E217F307A0F42E1B76
:103B10003F0B2817390778F0AC014E5F5F4F241731
:103B2000350748F04E0F5F1F5093BA054093B90513
:103B30008193919302C0E0E0F0E0CF01DF91CF915B
:103B400008950F931F93CF93DF93009709F48CC0D0
:103B5000FC013297138212820091BB051091BC05C3
:103B60000115110581F420813181820F931F20916D
:103B7000B9053091BA052817390779F5F093BA05D8
:103B8000E093B90571C0D80140E050E0AE17BF071F
:103B900050F412962D913C911397AD0121153105EA
:103BA00009F1D901F3CF9D01DA01338322836081CA
:103BB0007181860F971F8217930769F4EC012881A2
:103BC0003981260F371F2E5F3F4F318320838A8133
:103BD0009B8193838283452B29F4F093BC05E0936A
:103BE000BB0542C01396FC93EE931297ED014991E9
:103BF00059919E01240F351FE217F30771F480815C
:103C00009181840F951F029611969C938E938281C9
:103C1000938113969C938E931297E0E0F0E0D80185
:103C200012968D919C911397009719F0F8018C01D1
:103C3000F6CF8D919C9198012E5F3F4F820F931F7D
:103C40002091B9053091BA052817390769F43097E2
:103C500029F41092BC051092BB0502C01382128297
:103C60001093BA050093B905DF91CF911F910F9181
:103C70000895DC0101C06D9341505040E0F7089574
:103C80000E94821E08F481E00895E89409C097FB21
:103C90003EF490958095709561957F4F8F4F9F4F23
:103CA0009923A9F0F92F96E9BB279395F695879567
:103CB00077956795B795F111F8CFFAF4BB0F11F42A
:103CC00060FF1BC06F5F7F4F8F4F9F4F16C08823D1
:103CD00011F096E911C0772321F09EE8872F762F07
:103CE00005C0662371F096E8862F70E060E02AF048
:103CF0009A95660F771F881FDAF7880F9695879534
:103D000097F90895990F0008550FAA0BE0E8FEEF08
:103D100016161706E807F907C0F012161306E4078F
:103D2000F50798F0621B730B840B950B39F40A2688
:103D300061F0232B242B252B21F408950A2609F466
:103D4000A140A6958FEF811D811D08950E94B91E87
:103D50000C942A1F0E941C1F38F00E94231F20F081
:103D6000952311F00C94131F0C94191F11240C941B
:103D70005E1F0E943B1F70F3959FC1F3950F50E0AB
:103D8000551F629FF001729FBB27F00DB11D639F0D
:103D9000AA27F00DB11DAA1F649F6627B00DA11DB3
:103DA000661F829F2227B00DA11D621F739FB00D59
:103DB000A11D621F839FA00D611D221F749F3327C9
:103DC000A00D611D231F849F600D211D822F762F62
:103DD0006A2F11249F5750409AF0F1F088234AF03F
:103DE000EE0FFF1FBB1F661F771F881F91505040AB
:103DF000A9F79E3F510580F00C94131F0C945E1F91
:103E00005F3FE4F3983ED4F3869577956795B79531
:103E1000F795E7959F5FC1F7FE2B880F911D96954B
:103E2000879597F9089597F99F6780E870E060E0BB
:103E300008959FEF80EC089500240A941616170643
:103E400018060906089500240A941216130614068B
:103E500005060895092E0394000C11F4882352F0EE
:103E6000BB0F40F4BF2B11F460FF04C06F5F7F4FA6
:103E70008F4F9F4F089557FD9058440F551F59F08D
:103E80005F3F71F04795880F97FB991F61F09F3F47
:103E900079F087950895121613061406551FF2CF70
:103EA0004695F1DF08C0161617061806991FF1CFC0
:103EB00086957105610508940895E894BB276627E7
:103EC0007727CB0197F90895F999FECF92BD81BD6F
:103ED000F89A992780B50895262FF999FECF1FBA31
:103EE00092BD81BD20BD0FB6F894FA9AF99A0FBE23
:103EF00001960895A1E21A2EAA1BBB1BFD010DC05D
:103F0000AA1FBB1FEE1FFF1FA217B307E407F50789
:103F100020F0A21BB30BE40BF50B661F771F881F65
:103F2000991F1A9469F760957095809590959B01FB
:103F3000AC01BD01CF0108952F923F924F925F9245
:103F40006F927F928F929F92AF92BF92CF92DF92A9
:103F5000EF92FF920F931F93CF93DF93CDB7DEB70E
:103F6000CA1BDB0B0FB6F894DEBF0FBECDBF0994A2
:103F70002A88398848885F846E847D848C849B84F9
:103F8000AA84B984C884DF80EE80FD800C811B8107
:103F9000AA81B981CE0FD11D0FB6F894DEBF0FBE36
:103FA000CDBFED01089510E0C2E6D0E004C0FE01EF
:103FB0000E943A192196C336D107C9F7F894FFCF6A
:103FC0000000BD058000000000007403AA02A902E1
:103FD000A802A702F00B000000007403B40BAB0BA7
:103FE0009E0B910B6E0300000000740373037203B9
:103FF000710370036E0300000000A50C6D036C03D9
:104000006B036A03AB021800000000000000000010
:10401000E8FFE8FF000000000000140000000000BE
:1040200000000000ECFFECFF0000000000000000BA
:104030000000E600D40DAF008D00A1002D010600A8
:10404000000000002A042C04FAFFFAFF00002B04F1
:104050002E041800000000004B046204E8FFE8FF93
:10406000000058046C0498014C015601A2010000A4
:1040700000005109280469026602630260025D02C1
:10408000D401D001CD01B701D7015B015901020074
:104090000000000078047A04FEFFFEFF00007904AF
:1040A0007C0400000000530986040000000052094F
:1040B000760469026602630260025D0251020B022D
:1040C000F201D901D7019703760314000000000024
:1040D000FD031404ECFFECFF00000A041E041002B0
:1040E00060016A011A0200000000D409D40D657253
:1040F000722E00256400466F6E6374696F6E200037
:104100002C203A2000526563657474653A3A6C6FEE
:10411000616452656365747465282900526563653E
:104120007474653A3A736176655265636574746553
:10413000282900526563657474653A3A7365747032
:104140006F696E7428290054656D706572657573AA
:10415000653A3A73746172742829007C2000564DC8
:104160004450565F317C315F564D4450560D0A0025
:10417000736574757028295F64656275745F005497
:10418000656D706572657573653A3A696E69742814
:10419000295F64656275740054656D70657265753C
:1041A00073653A3A696E697428295F66696E0073AF
:1041B0006574757028295F64656275745F3200529A
:1041C0006563657474653A3A7365740073657475F4
:1041D0007028295F66696E5F0043686F636F4D6189
:1041E00072632076312E3000203C20436F6E74695C
:1041F0006E756572203E200054656D702E206163DF
:104200007475656C6C650043686F697820726563CE
:10421000657474650054656D707C4369626C657C7F
:10422000436861756600564D4450455F003A323A26
:10423000007C005F564D445045006C6F6F7028291C
:104240005F64656275745F6379636C65006C6F6F42
:104250007028295F626F75746F6E0054656D7065AC
:1042600072657573653A3A757064617465282900E2
:1042700054656D706572657573653A3A6765745417
:10428000656D7028290057696E646F7753697A6588
:10429000004F7574707574006E616E00696E660013
:1042A0006F7666006C6F6F7028295F726563657446
:1042B00074655F64EFBFBD6D617272EFBFBD650075
:1042C0006C6F6F7028295F726563657474655F63D6
:1042D00068616E67EFBFBD65006C6F6F7028295F06
:0A42E00066696E5F6379636C650028
:107E0000112484B714BE81FFF0D085E080938100F7
:107E100082E08093C00088E18093C10086E0809377
:107E2000C20080E18093C4008EE0C9D0259A86E02C
:107E300020E33CEF91E0309385002093840096BBD3
:107E4000B09BFECF1D9AA8958150A9F7CC24DD24C4
:107E500088248394B5E0AB2EA1E19A2EF3E0BF2EE7
:107E6000A2D0813461F49FD0082FAFD0023811F036
:107E7000013811F484E001C083E08DD089C08234E0
:107E800011F484E103C0853419F485E0A6D080C0E4
:107E9000853579F488D0E82EFF2485D0082F10E0AE
:107EA000102F00270E291F29000F111F8ED06801E7
:107EB0006FC0863521F484E090D080E0DECF843638
:107EC00009F040C070D06FD0082F6DD080E0C81688
:107ED00080E7D80618F4F601B7BEE895C0E0D1E017
:107EE00062D089930C17E1F7F0E0CF16F0E7DF06D8
:107EF00018F0F601B7BEE89568D007B600FCFDCFD4
:107F0000A601A0E0B1E02C9130E011968C91119780
:107F100090E0982F8827822B932B1296FA010C0160
:107F200087BEE89511244E5F5F4FF1E0A038BF0790
:107F300051F7F601A7BEE89507B600FCFDCF97BE46
:107F4000E89526C08437B1F42ED02DD0F82E2BD052
:107F50003CD0F601EF2C8F010F5F1F4F84911BD097
:107F6000EA94F801C1F70894C11CD11CFA94CF0C13
:107F7000D11C0EC0853739F428D08EE10CD085E9AC
:107F80000AD08FE07ACF813511F488E018D01DD067
:107F900080E101D065CF982F8091C00085FFFCCF94
:107FA0009093C60008958091C00087FFFCCF809118
:107FB000C00084FD01C0A8958091C6000895E0E648
:107FC000F0E098E1908380830895EDDF803219F02E
:107FD00088E0F5DFFFCF84E1DECF1F93182FE3DFCA
:107FE0001150E9F7F2DF1F91089580E0E8DFEE27F6
:047FF000FF270994CA
:027FFE00040479
:0400000300007E007B
:00000001FF