:100000000C9463000C948B000C948B000C948B006C
:100010000C948B000C948B000C948B000C948B0034
:100020000C948B000C948B000C948B000C948B0024
:100030000C948B000C948B000C948B000C948B0014
:100040000C9474040C948B000C9489030C9463033B
:100050000C948B000C948B000C948B000C948B00F4
:100060000C948B000C948B000000000023002600F1
:10007000290004040404040404040202020202022B
:10008000030303030303010204081020408001025C
:1000900004081020010204081020000000002400C1
:1000A00027002A0000000000250028002B00000087
:1000B0000008000201000003040700000000000027
:1000C0000000F215C61511241FBECFEFD8E0DEBF29
:1000D000CDBF12E0A0E0B1E0E4E5FCE302C0059092
:1000E0000D92AE3DB107D9F724E0AEEDB2E001C00C
:1000F0001D92A132B207E1F710E0C2E6D0E004C0E1
:100100002197FE010E943917C136D107C9F70E9415
:10011000970E0C941D1E0C940000FC01918D828D95
:10012000981761F0828DDF01A80FB11D5D968C914B
:10013000928D9F5F9F73928F90E008958FEF9FEF56
:100140000895FC01918D828D981731F0828DE80F12
:10015000F11D858D90E008958FEF9FEF0895FC01CC
:10016000918D228D892F90E0805C9F4F821B910999
:100170008F739927089582E293E00E94AF0021E0F7
:10018000892B09F420E0822F0895FC01848DDF0182
:10019000A80FB11DA35ABF4F2C91848D90E00196FA
:1001A0008F739927848FA689B7892C93A089B189E9
:1001B0008C9180648C93938D848D981306C00288F3
:1001C000F389E02D80818F7D80830895EF92FF92E7
:1001D0000F931F93CF93DF93EC0181E0888F9B8D6A
:1001E0008C8D981305C0E889F989808185FD24C02C
:1001F000F62E0B8D10E00F5F1F4F0F731127E02EAF
:100200008C8DE8120CC00FB607FCFACFE889F9898B
:10021000808185FFF5CFCE010E94C500F1CF8B8D87
:10022000FE01E80FF11DE35AFF4FF0820B8FEA89C0
:10023000FB898081806207C0EE89FF896083E8893D
:10024000F98980818064808381E090E0DF91CF91A3
:100250001F910F91FF90EF900895CF93DF93EC01E2
:10026000888D8823C9F0EA89FB89808185FD05C0D6
:10027000A889B9898C9186FD0FC00FB607FCF5CF10
:10028000808185FFF2CFA889B9898C9185FFEDCF58
:10029000CE010E94C500E7CFDF91CF91089580E0A5
:1002A00090E0892B29F00E94BB0081110C94000082
:1002B0000895CB0108957F928F929F92AF92BF9243
:1002C000CF92DF92EF92FF920F931F93CF93DF9322
:1002D000EC0149015A018B01C12CD12C7601C814C3
:1002E000D904EA04FB0484F5F80171908F018F852D
:1002F00080FF0BC0E881F9810084F185E02D20E1C9
:1003000044E060E070E0CE010995EB85FC858D85C9
:100310009E85E817F90738F470828B859C850196D5
:100320009C878B870BC0E881F981672D70E0028C78
:10033000F38DE02DCE010995019649F02FEFC21AF9
:10034000D20AE20AF20ACBCFB401C50102C0B6015B
:10035000C701DF91CF911F910F91FF90EF90DF9038
:10036000CF90BF90AF909F908F907F900895CF9344
:10037000DF93EC01E881F9810288F389E02D09958A
:100380008F3F2FEF920731F02D813E812F5F3F4F3E
:100390003E832D83DF91CF9108958FEF9FEF0895D6
:1003A00060E070E0CB01089580E090E00895CB011B
:1003B0000895CF93DF93EC0188899989DC01ED9151
:1003C000FC910480F581E02D0995892BA9F388899A
:1003D0009989DC01ED91FC910680F781E02DDF9198
:1003E000CF910994CF93DF93EC0188899989DC013F
:1003F000ED91FC910480F581E02D0995892BA9F3FD
:1004000088899989DC01ED91FC910084F185E02DCA
:10041000DF91CF910994AF92BF92CF92DF92EF928A
:10042000FF920F931F93CF93DF9300D000D0CDB7EF
:10043000DEB78C015B01C12CD12C7601F8018089DB
:100440009189DC01ED91FC910680F781E02D2983F3
:100450003A834B835C83099529813A814B815C8186
:100460008F3F71F0C216D306E406F5064CF4D501B1
:100470008D935D01BFEFCB1ADB0AEB0AFB0ADECFDF
:10048000C701B6010F900F900F900F90DF91CF91A1
:100490001F910F91FF90EF90DF90CF90BF90AF90A2
:1004A0000895DC0150968D919C915197DC01ED915E
:1004B000FC910480F581E02D099480E090E008959E
:1004C00080E090E0089580E090E0089580E090E082
:1004D000089508950F931F93CF93DF938C01EB0141
:1004E0006F3F8FEF780719F480E090E00FC06A301B
:1004F00031F46DE0F801808991890E94170E6C2F0C
:10050000F801808991890E94170ECE01DF91CF9169
:100510001F910F9108958F929F92BF92CF92DF9279
:10052000EF92FF920F931F93CF93DF9300D000D0F1
:10053000CDB7DEB78C014B01C12CD12C7601C21690
:10054000D306E406F50644F5F401B1904F01FAE054
:10055000BF120EC06DE0F8018089918929833A832A
:100560004B835C830E94170E5C814B813A81298109
:100570006B2DF8018089918929833A834B835C83B1
:100580000E94170EFFEFCF1ADF0AEF0AFF0A5C8105
:100590004B813A812981D3CFCA01B9010F900F90C5
:1005A0000F900F90DF91CF911F910F91FF90EF90DF
:1005B000DF90CF90BF909F908F9008950C94311D45
:1005C000089508950C94311DDC01ED91FC9136974E
:1005D00020813181820F931F0C94E202FB01208164
:1005E0003181FC0131832083FB0142815381F90178
:1005F000369720813181FC01E20FF31F5183408344
:1006000008952EEA31E0FC013183208328EB31E0AC
:10061000318F208F6EEB71E00C94EE02DC01ED91D6
:10062000FC91369720813181820F931F0C94010336
:10063000CF93DF93EC010E940103CE01DF91CF91B4
:100640000C94311DDC01ED91FC91369720813181B4
:10065000820F931F0C9418030C94311D26E232E094
:10066000FC013183208320E332E0358B248B66E369
:1006700072E00C942407DC01ED91FC913697208107
:100680003181820F931F0C942E03CF93DF93EC01E3
:100690000E942E03CE01DF91CF910C94311DDC011D
:1006A000ED91FC91369720813181820F931F0C943C
:1006B0004503DC01ED91FC91369720813181820F59
:1006C000931F0C9488061F920F920FB60F9211245D
:1006D0002F933F934F935F936F937F938F939F934A
:1006E000AF93BF93EF93FF9382E293E00E94C50024
:1006F000FF91EF91BF91AF919F918F917F916F91FA
:100700005F914F913F912F910F900FBE0F901F90CF
:1007100018951F920F920FB60F9211242F938F935B
:100720009F93EF93FF93E0913203F0913303808125
:10073000E0913803F091390382FD12C090818091DD
:100740003B038F5F8F7320913C03821751F0E09140
:100750003B03F0E0EE5DFC4F958F80933B0301C0BF
:100760008081FF91EF919F918F912F910F900FBEFC
:100770000F901F90189590E0FC01E255FF4F3491C7
:10078000FC01EA57FF4F2491FC01EE58FF4FE49122
:10079000EE2309F43BC0332339F1333091F038F4C0
:1007A0003130A9F0323001F584B58F7D12C0373079
:1007B00091F03830A1F03430B9F4809180008F7D11
:1007C00003C0809180008F77809380000DC084B536
:1007D0008F7784BD09C08091B0008F7703C080916E
:1007E000B0008F7D8093B000F0E0EE0FFF1FEC555E
:1007F000FF4FA591B4918FB7F894EC91611103C0AC
:1008000020952E2301C02E2B2C938FBF0895CF93BC
:10081000DF9390E0FC01EA57FF4F2491FC01EE5872
:10082000FF4F8491882361F190E0880F991FFC01AC
:10083000E656FF4FC591D491FC01EC55FF4FA591B1
:10084000B491611109C09FB7F894888120958223E3
:100850008883EC912E230BC0623061F49FB7F8942B
:100860003881822F809583238883EC912E2B2C93C3
:100870009FBF06C08FB7F894E8812E2B28838FBFC7
:10088000DF91CF9108953FB7F8948091F302909152
:10089000F402A091F502B091F60226B5A89B05C01E
:1008A0002F3F19F00196A11DB11D3FBFBA2FA92FEF
:1008B000982F8827820F911DA11DB11DBC01CD016C
:1008C00042E0660F771F881F991F4A95D1F7089558
:1008D0002FB7F8946091EF027091F0028091F102CD
:1008E0009091F2022FBF08951F920F920FB60F92B0
:1008F00011242F933F938F939F93AF93BF93809136
:10090000EF029091F002A091F102B091F2023091C9
:10091000EE0223E0230F2D3720F40196A11DB11D17
:1009200005C026E8230F0296A11DB11D2093EE02FB
:100930008093EF029093F002A093F102B093F20241
:100940008091F3029091F402A091F502B091F60229
:100950000196A11DB11D8093F3029093F402A09320
:10096000F502B093F602BF91AF919F918F913F91A5
:100970002F910F900FBE0F901F9018958F929F92FE
:10098000AF92BF92CF92DF92EF92FF920F931F939D
:10099000CF93DF93DC0128E030E081E088248A9463
:1009A000912C0FE010E053E2E52EF12C77EDC72EED
:1009B000D12C9C911196ED91FC911297592F509545
:1009C000782F762381F0F8947281572352835181D6
:1009D000592B5183E7012197F1F75281952B92838F
:1009E0007894F6010FC0F894728157235283518195
:1009F000592B5183E4012197F1F75281952B928372
:100A00007894F8013197F1F7880F2150310989F670
:100A1000411114C0F8941196ED91FC9112979181B7
:100A20008C918095892381831196ED91FC91129789
:100A300092818C918095892382837894DF91CF91E4
:100A40001F910F91FF90EF90DF90CF90BF90AF90EC
:100A50009F908F900895CF92DF92EF92FF920F9325
:100A60001F93CF93DF931F92CDB7DEB78C01F62E85
:100A700040E065E579830E94BE04CF2C7981D72EB2
:100A8000760188E0E80EF11CF60161916F0140E00B
:100A9000C8010E94BE04CE14DF04B1F70F90DF91AD
:100AA000CF911F910F91FF90EF90DF90CF9008951D
:100AB000FC0190810180F281E02DF8948181292F41
:100AC00020958223818378948DE743E050E0815024
:100AD00021F1DA011197F1F730813923C1F3F8944C
:100AE0008281822382838181892B81837894ABE701
:100AF000B7E01197F1F7F894818128232183A3E1CE
:100B0000B1E01197F1F78081982381E009F080E04E
:100B10007894E3E6F6E03197F1F7089508950895A3
:100B2000CF93DF93C0912003D0912103E881F98115
:100B30000480F581E02DCE010995892BB9F3E88178
:100B4000F9810680F781E02DCE01DF91CF910994E4
:100B50001F93CF93DF93182FC0912003D0912103CF
:100B60008A3041F4E881F9810190F081E02D6DE057
:100B7000CE010995E881F9810190F081E02D612F86
:100B8000CE01099521E030E0019711F420E030E03A
:100B9000C901DF91CF911F9108958F929F92AF92DB
:100BA000BF92CF92DF92EF92FF92CF934B015C0105
:100BB0000E943F176B017C0120E030E0A9010E94F8
:100BC0000B19181624F0F7FAF094F7F8F094A50131
:100BD0009401C701B6010E94B117C1E027E137EBCC
:100BE00041ED58E30E940B1918160CF0C0E08C2F51
:100BF000CF91FF90EF90DF90CF90BF90AF909F90FC
:100C00008F9008950895089508950895DC01D4966D
:100C10002D913C91D5972F5F3F4F233031052CF418
:100C2000D5963C932E93D4970895FC0115AA14AA47
:100C30000190F081E02D0084F185E02D09948F92E0
:100C40009F92AF92BF92EF92FF920F931F93CF9319
:100C5000DF93EC01EEA5FFA580809180A280B38098
:100C60002CA93DA94EA95FA9C501B4010E94CD05DB
:100C7000E8A8F9A80AA91BA981111AC028AD39ADA5
:100C80004AAD5BADF70160817181828193810E94E1
:100C9000CD0581110DC02CAD3DAD4EAD5FADF80160
:100CA00060817181828193810E94CD058823B9F092
:100CB0008CAA9DAAAEAABFAAF70180819181A281C8
:100CC000B38188AF99AFAAAFBBAFF80180819181A2
:100CD000A281B3818CAF9DAFAEAFBFAF81E0DF919A
:100CE000CF911F910F91FF90EF90BF90AF909F9089
:100CF0008F900895089508950895089580E00895C7
:100D000008950895089508954396089508950895BF
:100D10000C94311D0C94311DCF93DF93EC0160E0F6
:100D20008E810E94BB0361E08E810E94BB0360E064
:100D30008E810E94BB038BE891E00197F1F7DF9170
:100D4000CF910895CF92DF92EF92FF920F931F936E
:100D5000CF93DF9300D000D0CDB7DEB77E0125E082
:100D6000E20EF11C8E010F5F1F4F6C01C01AD10AF9
:100D7000C601800F911F0E94D01DF80181938F0141
:100D8000EE15FF05A9F769817A818B819C810F900F
:100D90000F900F900F90DF91CF911F910F91FF90C7
:100DA000EF90DF90CF9008958F929F92AF92BF9275
:100DB000CF92DF92FF920F931F93CF93DF93CDB724
:100DC000DEB761970FB6F894DEBF0FBECDBF8C01C2
:100DD000FC01C0A8D1A8F60180809180A280B380D8
:100DE000FC0122A933A944A955A9C501B4010E9457
:100DF000CD05F82E8823A9F0F80182AA93AAA4AA07
:100E0000B5AAF6014081518162817381CE010196BC
:100E10000E94000DBE016F5F7F4FC80143960E9484
:100E20008D198F2D61960FB6F894DEBF0FBECDBF22
:100E3000DF91CF911F910F91FF90DF90CF90BF90E6
:100E4000AF909F908F900895FB0120813181FC012C
:100E500031832083FB0142815381F9013697208140
:100E60003181FC01E20FF31F5183408308950895FF
:100E7000CF92DF92EF92FF920F931F93CF93DF9366
:100E80007C016C0187E0C80ED11CC0E0D0E0062FC9
:100E900010E0B8010C2E02C0759567950A94E2F730
:100EA0006170F60181916F010E94BB032196C430ED
:100EB000D10579F7C701DF91CF911F910F91FF9075
:100EC000EF90DF90CF900C948C06CF92DF92EF9250
:100ED000FF920F931F93CF93DF93EC01F62E642FB5
:100EE0008C810E94BB038D818F3F19F060E00E94CE
:100EF000BB038F850F2D10E084FF25C06E0187E0B6
:100F0000C80ED11CE12CF12CB8010E2C02C0759535
:100F100067950A94E2F76170F60181916F010E9472
:100F2000BB03FFEFEF1AFF0A88E0E816F10461F750
:100F3000CE01DF91CF911F910F91FF90EF90DF9045
:100F4000CF900C948C06B80184E0759567958A95CE
:100F5000E1F7CE010E9438076F2DCE01DF91CF91CE
:100F60001F910F91FF90EF90DF90CF900C94380776
:100F700041E00E94650781E090E0089540E00C9414
:100F800065076F927F928F929F92AF92BF92CF929E
:100F9000DF92EF92FF920F931F93CF93DF9300D0D6
:100FA00000D0CDB7DEB70CE0609F002D112410E01B
:100FB0007C015C0126E0A20EB11C4701F7016081B3
:100FC0007181072E000C880B990B0E945B186983B6
:100FD0007A838B839C83CE0101963C01C12CD12C5A
:100FE000F30161913F01C601800F911F0E94D81D3E
:100FF000FFEFCF1ADF0A24E0C216D10489F7C80137
:101000000E94A206E2E0EE0EF11C0E942318F401F9
:10101000208131812617370739F40C5F1F4FEA14FE
:10102000FB0459F681E001C080E00F900F900F9013
:101030000F90DF91CF911F910F91FF90EF90DF9074
:10104000CF90BF90AF909F908F907F906F900895BA
:10105000DC01D096ED91FC91D197608171819E96D3
:101060008D919C919F970C94C107EF92FF920F93E3
:101070001F93CF93DF93CCE06C9FC02D1124D0E061
:101080008C017C0186E0E80EF11CCE010E94A206D4
:101090000E942318F801619371938F012496EE1535
:1010A000FF0599F781E0DF91CF911F910F91FF909C
:1010B000EF9008958F929F92AF92BF92CF92DF925E
:1010C000EF92FF920F931F93CF93DF938C01FC015C
:1010D000128E118E848595850E943508F801C2858F
:1010E000D38588AD811130C0EC8DFD8DC080D1805D
:1010F000E280F380CCA2DDA2EEA2FFA2EA8DFB8DFE
:1011000080819181A281B38188A799A7AAA7BBA753
:101110008CA89DA8AEA8BFA8A5019401C701B601DF
:101120000E940B19181664F088A899A8AAA8BBA851
:10113000A5019401C701B6010E94AC1787FF04C046
:101140008CA29DA2AEA2BFA281E088AFF801808FE1
:10115000DF91CF911F910F91FF90EF90DF90CF9093
:10116000BF90AF909F908F900895EF92FF920F9352
:101170001F93CF93DF93CDB7DEB760970FB6F89488
:10118000DEBF0FBECDBF8C01FC0187A58F9386A566
:101190008F9386EB92E09F938F93CE0101967C0113
:1011A0009F938F930E949419B701C80143960E94A0
:1011B0008D190F900F900F900F900F900F906096D9
:1011C0000FB6F894DEBF0FBECDBFDF91CF911F9158
:1011D0000F91FF90EF900895DC019C96ED91FC91AA
:1011E0009D97208131819F963C932E939E970C94DE
:1011F000B508DC019E962D913C919F979C96ED91B0
:10120000FC919D97318320830C94B508FC0126A5A1
:1012100037A52150310937A726A70C94B508FC0142
:1012200026A537A52F5F3F4F37A726A70C94B508F3
:10123000CF92DF92EF92FF920F931F93CF93DF93A2
:10124000CDB7DEB769970FB6F894DEBF0FBECDBF3E
:101250008C01DC01D096ED91FC91D1976081718178
:10126000D2968D919C91D397F80132967F016817A1
:10127000790731F19E968D919C919F970E94350838
:10128000D801D096ED91FC91D19780819181D39630
:101290009C938E93D29781818F9380818F9385E9E0
:1012A00092E09F938F93FF92EF920E949419F8011E
:1012B00015AA14AA0F900F900F900F900F900F90F7
:1012C000D801D096ED91FC91D19781818F93808147
:1012D0008F9385E992E09F938F93FF92EF920E9404
:1012E0009419D801D096ED91FC91D19760817181CC
:1012F00089EB92E00E94550ED8019E96ED91FC91EB
:101300009F97E480F580C280D38060817181072E31
:10131000000C880B990B0E945B18AB01BC01CE013D
:1013200001960E94000DB601DD0C880B990B0E94FE
:101330005B18AB01BC01CE0145960E94000DB701C0
:10134000FF0C880B990B0E945B18AB01BC01CE010E
:1013500040960E94000D62EC72E0CE0101960E9460
:101360008219BE016B5E7F4FCE0101960E948219E9
:1013700065EC72E0CE0101960E948219BE01605FA9
:101380007F4FCE0101960E948219BE016F5F7F4F91
:10139000C80143960E948D190F900F900F900F90E7
:1013A0000F900F9069960FB6F894DEBF0FBECDBFB9
:1013B000DF91CF911F910F91FF90EF90DF90CF9031
:1013C00008950F931F93CF93DF938C01FC0124A901
:1013D00035A9C6A5D7A523303105B0F4220F331F98
:1013E000C20FD31F68817981072E000C880B990BDF
:1013F0000E945B1820E030E040E85FE30E943F1766
:101400000E94231879836883C801DF91CF911F91CF
:101410000F910C9418090F931F93CF93DF938C01B6
:10142000FC0124A935A9C6A5D7A523303105B0F400
:10143000220F331FC20FD31F68817981072E000C42
:10144000880B990B0E945B1820E030E040E85FE3D6
:101450000E9440170E94231879836883C801DF9196
:10146000CF911F910F910C941809CF93DF93EC014A
:101470000E941809CE014396DF91CF9108958F9273
:101480009F92AF92BF92CF92DF92EF92FF920F9313
:101490001F93CF93DF93CDB7DEB769970FB6F8945C
:1014A000DEBF0FBECDBF8C01DC01D296ED91FC9169
:1014B000D397C080D180E280F380D096ED91FC91EB
:1014C000D19780809180A280B3809E96ED91FC910F
:1014D0009F974081518162817381CE0101960E9464
:1014E000000DB501A401CE0145960E94000DB70183
:1014F000A601CE0140960E94000D62EC72E0CE0182
:1015000001960E948219BE016B5E7F4FCE0101964B
:101510000E94821965EC72E0CE0101960E94821948
:10152000BE01605F7F4FCE0101960E948219BE010D
:101530006F5F7F4FC80143960E948D1969960FB661
:10154000F894DEBF0FBECDBFDF91CF911F910F91F9
:10155000FF90EF90DF90CF90BF90AF909F908F90D3
:101560000895CF93DF93EC010E943F0ACE0143968A
:10157000DF91CF91089584E090E00E949C1C24E0CC
:1015800030E0FC013183208313821282089584E0CD
:1015900090E00E949C1C22E030E0FC01318320831B
:1015A00013821282089584E090E00E949C1C21E046
:1015B00030E0FC013183208313821282089584E09D
:1015C00090E00E949C1C23E030E0FC0131832083EA
:1015D000138212820895CF93DF93EC0184E090E0B0
:1015E0000E949C1CFC0111821082D383C283DF9174
:1015F000CF910895EF92FF920F931F93CF93DF93B4
:10160000EC01623018F08F8588608F876B8B1C8AA5
:1016100080E48D8B80E18E8B80E58F8B61E08C8107
:101620000E9407048D818F3F19F061E00E9407043A
:1016300061E08E810E9407047E0187E0E80EF11CC4
:1016400000E010E08F8584FD03C084E090E002C0DC
:1016500088E090E0081719074CF461E0F7018191E8
:101660007F010E9407040F5F1F4FECCF8BE39DE0CB
:101670000197F1F760E08C810E94BB0360E08E81EE
:101680000E94BB038D818F3F19F060E00E94BB0375
:101690006F8564FD1DC063E0CE010E9438070BE436
:1016A00016E4C8010197F1F763E0CE010E94380704
:1016B000C8010197F1F763E0CE010E94380783E586
:1016C00092E00197F1F762E0CE010E94380716C060
:1016D0006062CE010E94BE078BE496E40197F1F7A9
:1016E0006F856062CE010E94BE0783E592E001979C
:1016F000F1F76F856062CE010E94BE076F85606260
:10170000CE010E94BE0784E0888B6CE0CE010E946F
:10171000BE0761E0CE010E94BE078BE39FE1019707
:10172000F1F782E0898B66E0CE01DF91CF911F91C6
:101730000F91FF90EF900C94BE0720911B03309106
:101740001C038217930710F00E947D19880F991FC0
:101750002091170330911803820F931F0895CF92A1
:10176000DF92EF92FF920F931F93CF93DF936C0161
:101770007A018B01C0E0D0E0CE15DF0589F0D801F9
:101780006D918D01D601ED91FC910190F081E02DDC
:10179000C6010995892B11F47E0102C02196ECCF78
:1017A000C701DF91CF911F910F91FF90EF90DF90D4
:1017B000CF9008950E947D196115710579F0FB01A4
:1017C00001900020E9F73197AF01461B570BDC0170
:1017D000ED91FC910280F381E02D099480E090E08E
:1017E00008954F925F926F927F92EF92FF920F93C4
:1017F0001F93CF93DF93CDB7DEB7A1970FB6F894C1
:10180000DEBF0FBECDBF7C01FA01CB0119A2223091
:1018100008F42AE08E010F5D1F4F422E512C612CDF
:10182000712CBF01A30192010E941717F901CA018F
:10183000015011096A3014F4605D01C0695CD8017F
:101840006C93232B242B252B61F7B801C7010E9431
:10185000DC0BA1960FB6F894DEBF0FBECDBFDF91B3
:10186000CF911F910F91FF90EF907F906F905F90BD
:101870004F90089561E08FEF92E00E94BE078BE3E6
:101880009FE10197F1F78091FD029091FE020E9485
:101890009D0BDC018D919C91DC01ED91FC910190FF
:1018A000F081E02D09958091FD029091FE020E9449
:1018B0009D0BFC01608171816E5F7F4F8FEF92E025
:1018C0000E94DC0BE0911203E23010F4E15001C001
:1018D000E1E0F0E0E35FFC4F668160688FEF92E04B
:1018E0000E94BE078091FD029091FE020E949D0B16
:1018F000DC018D919C91DC01ED91FC910190F081D6
:10190000E02D0995BC018FEF92E00C94DC0BCF9297
:10191000DF92EF92FF920F931F93CF93DF9300918B
:101920001B0310911C03E80121960C171D0708F0FA
:1019300057C07C018091190390911A038C179D0761
:10194000A0F59801275F3F4F8217930770F5C0906D
:101950001703D090180330931A0320931903C90179
:10196000880F991F0E949C1C909318038093170363
:10197000D60140E050E040175107A1F0E091170375
:10198000F09118039A01220F331FE20FF31F3097D3
:1019900029F08D919C911197918380834F5F5F4FC8
:1019A0001296E9CFC6010E94311D80911B039091D0
:1019B0001C039C01220F331F8C179D07A0F4E0919C
:1019C0001703F0911803E20FF31F309729F0D701A6
:1019D0004D915C915183408301962E5F3F4FECCF38
:1019E000C017D10720F4D0931C03C0931B03DF91D1
:1019F000CF911F910F91FF90EF90DF90CF900895BE
:101A00004F925F926F927F928F929F92AF92BF920E
:101A1000CF92DF92EF92FF920F931F93CF93DF93BA
:101A200000D000D0CDB7DEB78C014A015B01CB01FD
:101A3000BA010E9423182B013C015F926F9386EB41
:101A4000C82E82E0D82EDF92CF921F930F930E9470
:101A500094190F900F900F900F900F900F9020E01F
:101A600030E44CE156E4C501B4010E940B1987FF34
:101A7000A1C020E030E04AE754ECC501B4010E9467
:101A8000AC1718160CF096C020E030E048EC52E499
:101A9000C501B4010E940B1987FF0AC020E030E0A5
:101AA00040E251ECC501B4010E94AC1718166CF06D
:101AB000D8010D900020E9F7CD0104978017910718
:101AC00009F07BC061E872E071C0B201550C880B6F
:101AD000990B0E945B189B01AC01C501B4010E94E7
:101AE0003F172B013C0120E030E040E251E4C5010A
:101AF000B4010E940B199E012F5F3F4F790187FFB0
:101B000009C020E030E0A901C501B4010E94AC1772
:101B100087FF24C06AEC72E0C8010E94821920E0AD
:101B200030E040E251E4C301B2010E9410190E946A
:101B300023187F936F9386EB92E09F938F93FF928E
:101B4000EF920E949419B701C8010E9482190F9068
:101B50000F900F900F900F900F902FC06AEC72E0D3
:101B6000C8010E94821920E030E048EC52E4C30131
:101B7000B2010E9410190E9423185B017F936F939A
:101B8000DF92CF92FF92EF920E9494190F900F90E4
:101B90000F900F900F900F903AE0A316B1042CF421
:101BA00061E572E0C8010E948219B701C8010E9474
:101BB000821903C087EC92E001C0C8010F900F901A
:101BC0000F900F90DF91CF911F910F91FF90EF90A9
:101BD000DF90CF90BF90AF909F908F907F906F904D
:101BE0005F904F900895CF93DF9320911B03309126
:101BF0001C0382179307B8F4EC018091FD029091C9
:101C0000FE020E949D0BDC018D919C91DC01ED9107
:101C1000FC910084F185E02D0995D093FE02C093DC
:101C2000FD0281E001C080E0DF91CF910895DC01E9
:101C3000ED91FC910190F081E02D0994CF92DF921B
:101C4000EF92FF920F931F93CF93DF938C016B0161
:101C5000770FEE08FF08F7FE12C06DE20E94170E24
:101C6000EC0144275527BA014C195D096E097F091B
:101C70002AE0C8010E94F10BC80FD91F06C02AE054
:101C8000B701A6010E94F10BEC016CEC72E0C801F7
:101C90000E94DC0B8C0F9D1FDF91CF911F910F9144
:101CA000FF90EF90DF90CF900895CF92DF92EF9268
:101CB000FF927C016B016FEC72E082E293E00E9484
:101CC000DC0BB70182E293E00E94DC0B69ED72E06D
:101CD00082E293E00E94DC0B0D2C000CEE08FF0862
:101CE000F7FE0EC06DE282E293E00E94170E4427D9
:101CF0005527BA014C195D096E097F092AE003C016
:101D00002AE0B701A60182E293E00E94F10B69ED9F
:101D100072E082E293E00E94DC0B60E070E082E21D
:101D200093E0FF90EF90DF90CF900C941E0ECF9336
:101D3000DF93CDB7DEB7A8970FB6F894DEBF0FBE1E
:101D4000CDBF789484B5826084BD84B5816084BD44
:101D500085B5826085BD85B5816085BD80916E0049
:101D6000816080936E00109281008091810082607A
:101D700080938100809181008160809381008091B7
:101D800080008160809380008091B10084608093A6
:101D9000B1008091B00081608093B00080917A00A2
:101DA000846080937A0080917A00826080937A00C8
:101DB00080917A00816080937A0080917A008068B7
:101DC00080937A001092C100E0913203F0913303C6
:101DD00082E08083E0912E03F0912F031082E09146
:101DE0003003F09131038FEC808310923A03E0913D
:101DF0003603F091370386E08083E0913403F0915D
:101E00003503808180618083E0913403F091350354
:101E1000808188608083E0913403F0913503808174
:101E200080688083E0913403F091350380818F7D59
:101E30008083E090F702F090F80289E390E00E943E
:101E40009C1C8C01C7018796D8015D969C938E934C
:101E50005C9708975B969C938E935A9704965F962F
:101E60009C938E935E97D8961C92F80110AA11AAA3
:101E700012AA13AA80E090E0AFE7B3E484AB95AB7D
:101E8000A6ABB7AB84E690E0A0E0B0E084A795A74E
:101E9000A6A7B7A7118E108E80E090E0A0EAB1E46B
:101EA00080839183A283B38340E050E060E07FE3CE
:101EB000448355836683778340E050E060E87FE3A6
:101EC000408751876287738784879587A687B787FE
:101ED0008DEC9CECACE4BDE3808B918BA28BB38B3F
:101EE00080E090E0A0E2B1E4848B958BA68BB78B69
:101EF0000E946804D8019C968D909D90AD90BC90F6
:101F00009F97DC01CB0188199909AA09BB09F8013F
:101F100080A391A3A2A3B3A3D7011B961C930E93F6
:101F20001A976D917C91072E000C880B990B0E94DB
:101F30005B184B015C0120E030E0A9010E94AC1766
:101F400018160CF05AC0F80110AA11AA12AA13AA66
:101F500084AA95AAA6AAB7AA80AD882309F44DC081
:101F6000C48CD58CF6014080518062807380A501BD
:101F70009401C301B2010E940B1918163CF4D6015A
:101F80008D929D92AD92BC9213970EC020E030E0EE
:101F9000A901C301B2010E94AC1787FF05C0F60179
:101FA0001082118212821382D80194964D905D9016
:101FB0006D907C909797D4968D909D90AD90BC90AD
:101FC000D797A5019401C301B2010E940B191816FD
:101FD0007CF0D801D0968D909D90AD90BC90D39719
:101FE000A5019401C301B2010E94AC1787FF05C08F
:101FF000F80184A295A2A6A2B7A261E0D701169625
:102000008C910E9407048EE090E00E949C1C6C0161
:10201000F7010085118560E0802F0E9407041127D9
:10202000F801EA57FF4FE491D601EC93F801EE581E
:10203000FF4FE491F0E0EE0FFF1FE859FF4F85914D
:102040009491F601928381831386158614863B96BC
:10205000C60103961292E817F907E1F7D7011F9618
:10206000DC92CE921E9786E090E00E949C1CF701C5
:102070009587848760E070E00E943508D7015A9602
:102080001C921E925997F701138E148E158E168E80
:1020900088E2808B8FEF818B8CE9828B8BEC838B3A
:1020A00080E6848B86E1858B83E0868B82E7878B55
:1020B0008DE290E09B8B8A8B8BE190E09D8B8C8BEB
:1020C0008FE190E09F8B8E8B60E070E0CE014296B6
:1020D0000E94C1076A897B8982E293E00E941E0EFA
:1020E00081E090E00E94EB0A7C0181E090E00E9498
:1020F000EB0A6C010E94BB0A5C010E94BB0A4C0106
:102100008CE290E00E949C1C8C01FC0180E491E038
:102110008193919364E472E0CF010E948D1963E58D
:1021200072E0C80143960E948D19D80195969C9241
:102130008E9294979796BC92AE9296979996DC92CF
:10214000CE9298979B96FC92EE929A971A83098367
:10215000FE0131967F01CF010E94870C82E090E062
:102160000E94EB0A6C0182E090E00E94EB0A5C01A5
:102170000E94BB0A4C010E94BB0A3C0186E390E02E
:102180000E949C1C8C0180E191E0D8018D939C936E
:1021900080E090E0A0E0BFE3F80184A795A7A6A7A0
:1021A000B7A728EE32E031AB20AB63E672E0C8019E
:1021B00002962FA338A70E948D19D80195967C927C
:1021C0006E92949797969C928E9296979996BC92BF
:1021D000AE9298979B96DC92CE929A97D096ED917C
:1021E000FC91D1974081518162817381C7010E9426
:1021F000000DB701C80143960E948D191A83098307
:10220000C7010E94870C83E090E00E94EB0A6C01FA
:102210000E94DF0A5C010E94C70A4C010E94D30A97
:102220003C0180E390E00E949C1C8C0170E2472EF0
:1022300071E0572EFC015182408284E091E095A725
:1022400084A762E772E0C80102960E948D196EECC5
:1022500072E0C80143960E948D19D80195967C9230
:102260006E92949797969C928E9296979996BC921E
:10227000AE9298979B96DC92CE929A979C96ED910F
:10228000FC919D97808191819F969C938E939E97C0
:10229000C8010E94B5081A830983C7010E94870CF0
:1022A00084E090E00E94EB0A3C010E94DF0A6C018E
:1022B0000E94C70A5C010E94D30A4C0180E390E0AF
:1022C0000E949C1C8C01FC0151824082ACEE4A2E83
:1022D000A2E05A2E55A644A663E872E002960E9438
:1022E0008D196EEC72E0C80143960E948D19D801D9
:1022F00095969C928E9294979796BC92AE92969752
:102300009996DC92CE9298979B967C926E929A9731
:102310009C96ED91FC919D97808191819F969C93D5
:102320008E939E97C8010E94B5081A830983C7013E
:102330000E94870C81E090E00E94EB0A3C010E9421
:10234000DF0A6C010E94C70A5C010E94D30A4C019B
:1023500082E490E00E949C1C8C0180E391E0F801F3
:1023600091838083B4EF2B2E3324339435A624A697
:1023700051AA40AA13AA12AA15AA14AA8091ED0282
:102380008F938091EC028F9385E992E09F938F93D6
:10239000C80102969F938F930E949419D801959635
:1023A0009C928E9294979796BC92AE92969799969D
:1023B000DC92CE9298979B967C926E929A9786E04A
:1023C00090E00E949C1CF80197A786A700A8F1A99D
:1023D000E02D608171810E943508C8010E941809B2
:1023E0001A830983C7010E94870C80E090E00E9455
:1023F000EB0A3C0180E090E00E94EB0A8C010E9415
:10240000BB0A6C010E94BB0A5C0180E490E00E9460
:102410009C1C4C0180E591E0D40111969C938E9315
:102420009D963C922E929C972FA138A59F963C9307
:102430002E939E9784EE92E0D1969C938E93D097A4
:1024400080EE92E0D3969C938E93D29760EA72E0EE
:10245000C40102960E948D196EEC72E0C40143968D
:102460000E948D19F401B5A2A4A2D7A2C6A211A7F9
:1024700000A773A662A6C4010E943F0A9A828982BD
:10248000C7010E94870C0E943A0C0F900F900F908A
:102490000F900F900F90ECA2FEA2FE2DF75FFDA310
:1024A0006091EC027091ED0281EB92E00E94550E7A
:1024B00080E480937C0080917A00806480937A002D
:1024C00080917A0086FDFCCF809178002091790080
:1024D00090E0922B9093DF028093DE02893E23E00E
:1024E00092078CF4823391058CF08A3F91058CF031
:1024F000823CA1E09A0784F08A38B2E09B077CF026
:10250000823593407CF005E010E00EC003E010E05F
:102510000BC000E010E008C001E010E005C002E0E0
:1025200010E002C004E010E01093030100930201E8
:1025300080910001909101010817190709F447C023
:1025400005301105E1F18091FD029091FE020E949B
:102550009D0BDC018D919C91F8017296EE0FFF1F8F
:10256000E80FF91F0190F081E02D208131812130A9
:102570003105A9F03CF4232B01F5828193810E945F
:10258000F30D1BC02230310589F023303105A9F449
:10259000DC01ED91FC910680F781E02D0DC0DC019E
:1025A000ED91FC910280F381E02D06C0DC01ED91FC
:1025B000FC910480F581E02D09950E943A0C8091F0
:1025C0000201909103019093010180930001809199
:1025D000FD029091FE020E949D0BFC018081918181
:1025E000DC01ED91FC910284F385E02D09958111C8
:1025F0000E943A0C2090F7023090F8020E94680482
:10260000F101C38CD48CE58CF68CF8ECCF0ED11C88
:10261000E11CF11C0E9468046C157D058E059F0568
:1026200008F434C20E946804D1015B966D937D93D7
:102630008D939C935E971E968D919C911F970E94FF
:1026400058058101005F1F4FB801F101868597850C
:102650000E942B0540E06EEBD1011E968D919C915E
:102660001F970E94BE04CCA0DEA0F101268537850D
:1026700088E090E0FF24F39470E0D9016C9111960A
:10268000ED91FC911297F8944181462B4183428150
:10269000E62EE0944E21428347E050E0DA011197A4
:1026A000F1F74181E422E18243E250E0DA0111973F
:1026B000F1F740817894EFECF0E03197F1F7642383
:1026C00009F07F29FF0C0197C1F6F60171936F01A4
:1026D000FDA1FC11CACFEA80F12CFE2CEE248981E9
:1026E000E82A8D81807619F428EFE22209C0803231
:1026F00019F48CEFE82204C0803411F4E894E0F877
:10270000D1011E968D919C911F970E945805B8018A
:10271000F101868597850E942B0541E064E4D10193
:102720001E968D919C911F970E94BE04B701FF0CCD
:10273000880B990B0E945B1820E030E040E85DE3D5
:102740000E9410196B017C01F101678F70A381A3B6
:1027500092A3808D882309F48CC1818D928D00977E
:1027600019F00197B9F02EC00484F585E02D608141
:102770007181072E000C880B990B0E945B189B013E
:10278000AC01C701B6010E940B191816DCF481E0F8
:1027900090E015C00484F585E02D62817381072ED9
:1027A000000C880B990B0E945B189B01AC01C701C0
:1027B000B6010E94AC1787FF05C082E090E0F101EE
:1027C000928F818FD1011A96AD90BC901B97F50125
:1027D00080AD882309F4D9C00E946804688F798F7E
:1027E0008A8F9B8FF50180A191A1A2A1B3A1488DF1
:1027F000598D6A8D7B8D481B590B6A0B7B0B84A509
:1028000095A5A6A5B7A5481759076A077B0708F439
:10281000BCC0028CF38DE02D4080518062807380BB
:10282000D5015E96ED91FC915F97A30192016081C5
:102830007181828193810E943F176C8F7D8F8E8F73
:102840009F8FF50120893189428953890E9410198F
:10285000D50194962D913D914D915C9197970E9451
:1028600040176B017C01F50164A375A386A397A3B0
:1028700084A895A806A917A99401A8010E940B197C
:1028800018161CF4C401D80117C0D501D0968D913B
:102890009D910D90BC91A02D88A399A3AAA3BBA341
:1028A0009C01AD01C701B6010E94AC1787FF09C0AA
:1028B00088A199A1AAA1BBA1F50184A395A3A6A370
:1028C000B7A3D5011C962D913D914D915C911F9719
:1028D0006C8D7D8D8E8D9F8D0E941019F50124A128
:1028E00035A146A157A10E9440176B017C01D5017B
:1028F00098962D913D914D915C919B97C301B201AA
:102900000E943F17F50124893589468957890E941D
:1029100010199B01AC01C701B6010E943F176B0162
:102920007C019401A8010E940B191816B4F0D5017E
:10293000D0968C90D097D1969C90D197D2960C91AE
:10294000D297D3961C919401A801B601C7010E94A9
:10295000AC1787FD02C046018701D5015C96ED9159
:10296000FC915D97C401D80180839183A283B383D6
:10297000F50140A651A662A673A6888D998DAA8DF1
:10298000BB8D80A391A3A2A3B3A3D1011C968D916B
:102990009C911D975996ED91FC915A97EE0FFF1F50
:1029A000E80FF91F60817181072E000C880B990BCD
:1029B0000E945B18F10163A374A385A396A320E092
:1029C00030E04AE754E467A170A581A592A50E9472
:1029D0000B1918164CF480E090E0AAE7B4E4F1017A
:1029E00087A390A7A1A7B2A70E946804D10112965D
:1029F0000D911D912D913C911597CD90DC900D2C52
:102A0000000CEE08FF084B015C01801A910AA20A33
:102A1000B30AC814D904EA04FB0448F40C0D1D1DC4
:102A20002E1D3F1DF1010283138324833583D101C1
:102A300012960D911D912D913C911597601B710B74
:102A4000820B930B0E9459189B01AC01F10167A105
:102A500070A581A592A50E940B1918162CF461E0AF
:102A6000D10116968C9103C060E0F10186810E942D
:102A7000BB03F101878D90A1A1A1B2A18093E802CF
:102A80009093E902A093EA02B093EB028091F702DF
:102A90009091F802DC0158962C91211106C06091AA
:102AA0000401709105010E945A08809104019091DF
:102AB000050120911E0330911F038217930791F0A7
:102AC00090931F0380931E0385E090E00E94F30D16
:102AD00060910401709105018091F7029091F802D4
:102AE0000E945A080091F7021091F802F8018485BB
:102AF0009585018CF28DE02DEE0FFF1FE80FF91F79
:102B000060817181072E000C880B990B0E945B1865
:102B10006093E4027093E5028093E6029093E702EB
:102B2000F80187A190A5A1A5B2A58093E00290939A
:102B3000E102A093E202B093E3020E9443044B013E
:102B40005C0138ECC32ED12CE12CF12C0E94430403
:102B5000DC01CB0188199909AA09BB09883E934079
:102B6000A105B10558F0F1E0CF1AD108E108F1084C
:102B700028EE820E23E0921EA11CB11CC114D104C8
:102B8000E104F10419F70E944F018ACC0F931F93BF
:102B9000CF93DF93C0911703D091180300911B03CB
:102BA00010911C03000F111F0C0F1D1FFE01C017F9
:102BB000D10731F02296808191810E94311DF6CF9C
:102BC00080911703909118030E94311D8FEB93E0C1
:102BD0000E9401038DEE93E0DF91CF911F910F9141
:102BE0000C942E03FF920F931F93CF93DF93A2E2D7
:102BF000B3E013961C921E92129748EE53E060E0E9
:102C000070E014964D935D936D937C93179788E8CD
:102C100091E011969C938E9385EC90E01D969C9389
:102C20008E931C9784EC90E01F969C938E931E9736
:102C300080EC90E051969C938E93509781EC90E0BD
:102C400053969C938E93529782EC90E055969C936A
:102C50008E93549786EC90E057969C938E9356975C
:102C600059961C9259975A961C925A975B961C92A9
:102C70005B975C961C925C97EDEEF3E0C1E2D0E0CE
:102C8000D08FC78B118E128E138E46E050E060E01D
:102C900070E0448F558F668F778F10A211A212A219
:102CA00013A220E224A316A215A211A68FEE93E090
:102CB00090A787A386E292E09183808380E392E0ED
:102CC000958B848B16821582108617821286118648
:102CD0001486138616861586108A178684E092E07D
:102CE00093838283B38BA28B30E1318BEFEBF3E0E4
:102CF000D48FC38F158E168E178E40A351A362A357
:102D000073A314A215A216A217A220A712A611A699
:102D100015A6128213821482158225EC33E034A7A3
:102D200023A72EEA31E03183208328EB31E0318F75
:102D3000208F128611861486138616861586108AB1
:102D40001786128A118A148A138A97838683B78B0F
:102D5000A68B88E0F82EF58AB0932103A093200378
:102D600060E975E088EA95E00E94351C80910401D5
:102D70009091050190931F0380931E03C9EFD2E049
:102D800080E190E09983888302E010E01B830A834E
:102D90001D821C821986188680E492E09F838E83B0
:102DA000FA868FEF8B8789E08C8784E08D8785E0BA
:102DB0008E8786E08F8787E0888B198A1A8A1B8A1C
:102DC0001C8A1D8A61E08FEF92E00E94FA0A88E077
:102DD00090E099A388A31BA21AA280E190E00E9430
:102DE0009C1C9F8F8E8F62E08FEF92E00E94FA0A08
:102DF0008BE290E00E949C1CFC0188E893E19183A7
:102E0000808312821382148215828FE090E0978370
:102E1000868311870087128E118EF093F802E0935B
:102E2000F702DF91CF911F910F91FF900895A1E2DA
:102E30001A2EAA1BBB1BFD010DC0AA1FBB1FEE1F34
:102E4000FF1FA217B307E407F50720F0A21BB30B7F
:102E5000E40BF50B661F771F881F991F1A9469F7FB
:102E600060957095809590959B01AC01BD01CF0157
:102E70000895EE0FFF1F0590F491E02D099450582E
:102E8000BB27AA270E9457170C94D1180E94C31879
:102E900038F00E94CA1820F039F49F3F19F426F444
:102EA0000C94C0180EF4E095E7FB0C94BA18E92FC7
:102EB0000E94E21858F3BA17620773078407950750
:102EC00020F079F4A6F50C9404190EF4E0950B2E7D
:102ED000BA2FA02D0B01B90190010C01CA01A0016C
:102EE0001124FF27591B99F0593F50F4503E68F1C7
:102EF0001A16F040A22F232F342F4427585FF3CF08
:102F0000469537952795A795F0405395C9F77EF4D8
:102F10001F16BA0B620B730B840BBAF09150A1F021
:102F2000FF0FBB1F661F771F881FC2F70EC0BA0FA7
:102F3000621F731F841F48F4879577956795B7952F
:102F4000F7959E3F08F0B0CF9395880F08F099272A
:102F5000EE0F9795879508950E94961808F481E0E2
:102F600008950E94C5170C94D1180E94CA1858F0F1
:102F70000E94C31840F029F45F3F29F00C94BA185E
:102F800051110C9405190C94C0180E94E21868F3B2
:102F90009923B1F3552391F3951B550BBB27AA2712
:102FA00062177307840738F09F5F5F4F220F331F4C
:102FB000441FAA1FA9F335D00E2E3AF0E0E832D014
:102FC00091505040E695001CCAF72BD0FE2F29D017
:102FD000660F771F881FBB1F261737074807AB07E9
:102FE000B0E809F0BB0B802DBF01FF2793585F4F5E
:102FF0003AF09E3F510578F00C94BA180C940519DC
:103000005F3FE4F3983ED4F3869577956795B7953F
:10301000F7959F5FC9F7880F911D9695879597F94A
:103020000895E1E0660F771F881FBB1F62177307C3
:103030008407BA0720F0621B730B840BBA0BEE1FD8
:1030400088F7E09508950E942A186894B1110C94AD
:10305000051908950E94EA1888F09F5798F0B92F33
:103060009927B751B0F0E1F0660F771F881F991FBD
:103070001AF0BA95C9F714C0B13091F00E94041942
:10308000B1E008950C940419672F782F8827B85F52
:1030900039F0B93FCCF3869577956795B395D9F715
:1030A0003EF490958095709561957F4F8F4F9F4F1F
:1030B0000895E89409C097FB3EF49095809570952B
:1030C00061957F4F8F4F9F4F9923A9F0F92F96E974
:1030D000BB279395F695879577956795B795F111E9
:1030E000F8CFFAF4BB0F11F460FF1BC06F5F7F4F86
:1030F0008F4F9F4F16C0882311F096E911C0772398
:1031000021F09EE8872F762F05C0662371F096E8A0
:10311000862F70E060E02AF09A95660F771F881F6F
:10312000DAF7880F9695879597F90895990F000813
:10313000550FAA0BE0E8FEEF16161706E807F90789
:10314000C0F012161306E407F50798F0621B730B24
:10315000840B950B39F40A2661F0232B242B252BA5
:1031600021F408950A2609F4A140A6958FEF811D48
:10317000811D089597F99F6780E870E060E00895E9
:103180009FEF80EC089500240A941616170618067F
:103190000906089500240A9412161306140605065B
:1031A0000895092E0394000C11F4882352F0BB0FEC
:1031B00040F4BF2B11F460FF04C06F5F7F4F8F4F4F
:1031C0009F4F089557FD9058440F551F59F05F3F8A
:1031D00071F04795880F97FB991F61F09F3F79F039
:1031E00087950895121613061406551FF2CF4695BB
:1031F000F1DF08C0161617061806991FF1CF86953D
:103200007105610508940895E894BB276627772720
:10321000CB0197F908950E94961808F48FEF08954E
:103220000E9423190C94D1180E94C31838F00E94F0
:10323000CA1820F0952311F00C94BA180C94C018F9
:1032400011240C9405190E94E21870F3959FC1F3A4
:10325000950F50E0551F629FF001729FBB27F00D44
:10326000B11D639FAA27F00DB11DAA1F649F662799
:10327000B00DA11D661F829F2227B00DA11D621FE8
:10328000739FB00DA11D621F839FA00D611D221FA2
:10329000749F3327A00D611D231F849F600D211D86
:1032A000822F762F6A2F11249F5750409AF0F1F009
:1032B00088234AF0EE0FFF1FBB1F661F771F881F72
:1032C00091505040A9F79E3F510580F00C94BA18D8
:1032D0000C9405195F3FE4F3983ED4F386957795F7
:1032E0006795B795F795E7959F5FC1F7FE2B880F18
:1032F000911D9695879597F9089581E090E0F8944F
:103300000C941D1EFB01DC010D900020E9F71197C4
:1033100001900D920020E1F70895FB01DC0101907E
:103320000D920020E1F70895AEE0B0E0EAE9F9E19E
:103330000C94F41D0D891E8986E08C831A83098301
:103340008FEF9FE79E838D83AE01475E5F4F6F894E
:10335000788DCE0101960E94B7192F813885F8012A
:10336000E20FF31F10822E96E4E00C94101EACE0E6
:10337000B0E0EDEBF9E10C94E61D7C016B018A01F4
:10338000FC0117821682838181FFBDC1CE010196A7
:103390004C01F7019381F60193FD859193FF819193
:1033A0006F01882309F4ABC1853239F493FD85910F
:1033B00093FF81916F01853229F4B70190E00E945B
:1033C0009F1BE7CF512C312C20E02032A0F48B3210
:1033D00069F030F4803259F0833269F420612CC0F6
:1033E0008D3239F0803339F4216026C022602460A8
:1033F00023C0286021C027FD27C030ED380F3A30A8
:1034000078F426FF06C0FAE05F9E300D1124532E9B
:1034100013C08AE0389E300D1124332E20620CC078
:103420008E3221F426FD6BC1206406C08C3611F467
:10343000206802C0883641F4F60193FD859193FF20
:1034400081916F018111C1CF982F9F7D9554933049
:1034500028F40C5F1F4FFFE3F9830DC0833631F072
:10346000833771F0833509F05BC022C0F801808199
:1034700089830E5F1F4F44244394512C540115C07F
:103480003801F2E06F0E711CF801A080B18026FFB8
:1034900003C0652D70E002C06FEF7FEFC5012C8780
:1034A0000E94941B2C0183012C852F77222E17C09C
:1034B0003801F2E06F0E711CF801A080B18026FF88
:1034C00003C0652D70E002C06FEF7FEFC5012C8750
:1034D0000E94891B2C012C852068222E830123FC4D
:1034E0001BC0832D90E048165906B0F4B70180E266
:1034F00090E00E949F1B3A94F4CFF50127FC859140
:1035000027FE81915F01B70190E00E949F1B31105F
:103510003A94F1E04F1A51084114510471F7E5C093
:10352000843611F0893639F5F80127FF07C060812C
:103530007181828193810C5F1F4F08C0608171810E
:10354000072E000C880B990B0E5F1F4F2F76722EE3
:1035500097FF09C090958095709561957F4F8F4F2B
:103560009F4F2068722E2AE030E0A4010E94D71BF2
:10357000A82EA81844C0853729F42F7EB22E2AE041
:1035800030E025C0F22FF97FBF2E8F36C1F018F43E
:10359000883579F0B4C0803719F0883721F0AFC092
:1035A0002F2F2061B22EB4FE0DC08B2D8460B82E5B
:1035B00009C024FF0AC09F2F9660B92E06C028E0DC
:1035C00030E005C020E130E002C020E132E0F80147
:1035D000B7FE07C060817181828193810C5F1F4FAC
:1035E00006C06081718180E090E00E5F1F4FA401F2
:1035F0000E94D71BA82EA818FB2DFF777F2E76FEE2
:103600000BC0372D3E7FA51450F474FE0AC072FC27
:1036100008C0372D3E7E05C0BA2C372D03C0BA2C0A
:1036200001C0B52C34FF0DC0FE01EA0DF11D8081F3
:10363000803311F4397E09C032FF06C0B394B394CD
:1036400004C0832F867809F0B39433FD13C030FF94
:1036500006C05A2CB31418F4530C5B18B32CB314D3
:1036600068F4B70180E290E03C870E949F1BB3940E
:103670003C85F5CFB31410F43B1801C0312C34FF56
:1036800012C0B70180E390E03C870E949F1B3C85FD
:1036900032FF17C031FD03C088E790E002C088E523
:1036A00090E0B7010CC0832F867859F031FF02C03B
:1036B0008BE201C080E237FD8DE2B70190E00E940D
:1036C0009F1BA51438F4B70180E390E00E949F1B74
:1036D0005A94F7CFAA94F401EA0DF11D8081B70145
:1036E00090E00E949F1BA110F5CF332009F451CE2A
:1036F000B70180E290E00E949F1B3A94F6CFF70159
:103700008681978102C08FEF9FEF2C96E2E10C94A7
:10371000021EFC010590615070400110D8F78095A1
:1037200090958E0F9F1F0895FC016150704001908D
:103730000110D8F7809590958E0F9F1F08950F93D5
:103740001F93CF93DF93FB01238121FD03C08FEFF4
:103750009FEF28C022FF16C0468157812481358102
:103760004217530744F4A081B1819D012F5F3F4F61
:10377000318320838C93268137812F5F3F4F37839E
:10378000268310C0EB01092F182F0084F185E02D4E
:103790000995892BE1F68E819F8101969F838E8307
:1037A000812F902FDF91CF911F910F910895FA01F2
:1037B000AA27283051F1203181F1E8946F936E7F70
:1037C0006E5F7F4F8F4F9F4FAF4FB1E03ED0B4E061
:1037D0003CD0670F781F891F9A1FA11D680F791FA2
:1037E0008A1F911DA11D6A0F711D811D911DA11DB3
:1037F00020D009F468943F912AE0269F11243019C3
:10380000305D3193DEF6CF010895462F4770405D5D
:103810004193B3E00FD0C9F7F6CF462F4F70405D0C
:103820004A3318F0495D31FD4052419302D0A9F767
:10383000EACFB4E0A6959795879577956795BA9561
:10384000C9F700976105710508959B01AC010A2E27
:1038500006945795479537952795BA95C9F7620FFE
:10386000731F841F951FA01D08950F931F93CF935F
:10387000DF93009731F46115710519F480E090E051
:103880003AC08B01EC016EE070E081E090E00E94B4
:10389000801CFC01892B91F380E8838301151105BD
:1038A00071F01387028781E88383809117049091D8
:1038B0001804892B21F4F0931804E093170420973F
:1038C000C9F0D187C0878381826083838091190486
:1038D00090911A04892B71F4F0931A04E09319045F
:1038E00080911B0490911C04892B21F4F0931C04FB
:1038F000E0931B04CF01DF91CF911F910F910895A9
:103900000F931F93CF93DF93869F8001879F100DA6
:10391000969F100D1124C8010E949C1CEC01009779
:1039200029F0A80160E070E00E94C91DCE01DF917E
:10393000CF911F910F910895CF93DF93823091051E
:1039400010F482E090E0E0911F04F091200420E068
:1039500030E0C0E0D0E0309711F14081518148174C
:103960005907C0F04817590761F482819381209765
:1039700019F09B838A832BC09093200480931F04AB
:1039800026C02115310519F04217530718F49A0182
:10399000BE01DF01EF010280F381E02DDCCF2115B4
:1039A000310509F1281B390B2430310590F41296AA
:1039B0008D919C9113976115710521F0FB01938303
:1039C000828304C09093200480931F04FD013296EB
:1039D00044C0FD01E20FF31F8193919322503109FE
:1039E0002D933C933AC020911D0430911E04232B4B
:1039F00041F4209108013091090130931E04209375
:103A00001D0420910601309107012115310541F473
:103A10002DB73EB740910A0150910B01241B350B85
:103A2000E0911D04F0911E04E217F307A0F42E1B91
:103A30003F0B2817390778F0AC014E5F5F4F241712
:103A4000350748F04E0F5F1F50931E0440931D042E
:103A50008193919302C0E0E0F0E0CF01DF91CF913C
:103A600008950F931F93CF93DF93009709F48CC0B1
:103A7000FC0132971382128200911F0410912004DE
:103A80000115110581F420813181820F931F20914E
:103A90001D0430911E042817390779F5F0931E0490
:103AA000E0931D0471C0D80140E050E0AE17BF079D
:103AB00050F412962D913C911397AD0121153105CB
:103AC00009F1D901F3CF9D01DA01338322836081AB
:103AD0007181860F971F8217930769F4EC01288183
:103AE0003981260F371F2E5F3F4F318320838A8114
:103AF0009B8193838283452B29F4F0932004E093E8
:103B00001F0442C01396FC93EE931297ED01499166
:103B100059919E01240F351FE217F30771F480813C
:103B20009181840F951F029611969C938E938281AA
:103B3000938113969C938E931297E0E0F0E0D80166
:103B400012968D919C911397009719F0F8018C01B2
:103B5000F6CF8D919C9198012E5F3F4F820F931F5E
:103B600020911D0430911E042817390769F43097FD
:103B700029F41092200410921F0402C013821282B2
:103B800010931E0400931D04DF91CF911F910F919C
:103B90000895DC0101C06D9341505040E0F7089555
:103BA000F999FECF92BD81BDF89A992780B5089505
:103BB000262FF999FECF1FBA92BD81BD20BD0FB649
:103BC000F894FA9AF99A0FBE019608952F923F92AF
:103BD0004F925F926F927F928F929F92AF92BF921D
:103BE000CF92DF92EF92FF920F931F93CF93DF93C9
:103BF000CDB7DEB7CA1BDB0B0FB6F894DEBF0FBE26
:103C0000CDBF09942A88398848885F846E847D8472
:103C10008C849B84AA84B984C884DF80EE80FD8074
:103C20000C811B81AA81B981CE0FD11D0FB6F894EA
:103C3000DEBF0FBECDBFED01089510E0C2E6D0E0BB
:103C400004C0FE010E9439172196C336D107C9F777
:043C5000F894FFCF16
:103C540005000500FFFF00002104800000000000B3
:103C640084060506040603060206D40600000000C6
:103C740084060F090609F908EC087E060000000016
:103C8400350A0B0AE109060628087E060000000032
:103C9400840683068206810680067E0600000000F4
:103CA400B10A7D067C067B067A061F061800000012
:103CB400000000000000E8FFE8FF00000000000032
:103CC40014000000000000000000ECFFECFF000006
:103CD4000000000000000000E600AF0BAF008D0004
:103CE400A1002D01060000000000E002E202FAFF3C
:103CF400FAFF0000E102E4021800000000000103E2
:103D04001803E8FFE8FF00000E032203AE0162017E
:103D14006C01B801000000008E05DE026902660233
:103D2400630260025D02D401D001CD01B701D70165
:103D34005B01590102000000000086068806FEFFB0
:103D4400FEFF0000870659030000000037078A06BB
:103D5400000000008F052C03690266026302600202
:103D64005D0251020B02F201D901D7018B026A02F2
:103D74001400000000002E034503ECFFECFF0000DC
:103D84003B034F032602760180013002000000004D
:103D9400B807AF0B43686F636F4D61726320763170
:103DA4002E3000203C20436F6E74696E756572205E
:103DB4003E200054656D702E2061637475656C6CD3
:103DC400650043686F697820726563657474652063
:103DD40020200045646974696F6E207265636574A0
:103DE4007465202300526563657474652025690039
:103DF40054656D707C4369626C657C43686175666B
:103E040000656469740025640052656365747465B3
:103E140020007C20007C006572722E000D0A004692
:0E3E24006F6E6374696F6E20002C203A2000D0
:00000001FF
