:100000000C9463000C948B000C948B000C948B006C
:100010000C948B000C948B000C948B000C948B0034
:100020000C948B000C948B000C948B000C948B0024
:100030000C948B000C948B000C948B000C948B0014
:100040000C9488040C948B000C949D030C947703FF
:100050000C948B000C948B000C948B000C948B00F4
:100060000C948B000C948B000000000023002600F1
:10007000290004040404040404040202020202022B
:10008000030303030303010204081020408001025C
:1000900004081020010204081020000000002400C1
:1000A00027002A0000000000250028002B00000087
:1000B0000008000201000003040700000000000027
:1000C0000000A517791711241FBECFEFD8E0DEBFBF
:1000D000CDBF14E0A0E0B1E0E4ECFFE302C0059086
:1000E0000D92AE33B107D9F725E0AEE3B4E001C01D
:1000F0001D92A338B207E1F710E0C2E6D0E004C0D9
:100100002197FE010E94EC18C136D107C9F70E9461
:10011000B80F0C94D51F0C940000FC01918D828DBA
:10012000981761F0828DDF01A80FB11D5D968C914B
:10013000928D9F5F9F73928F90E008958FEF9FEF56
:100140000895FC01918D828D981731F0828DE80F12
:10015000F11D858D90E008958FEF9FEF0895FC01CC
:10016000918D228D892F90E0805C9F4F821B910999
:100170008F739927089584E894E00E94AF0021E0EE
:10018000892B09F420E0822F0895FC01848DDF0182
:10019000A80FB11DA35ABF4F2C91848D90E00196FA
:1001A0008F739927848FA689B7892C93A089B189E9
:1001B0008C9180648C93938D848D981306C00288F3
:1001C000F389E02D80818F7D80830895EF92FF92E7
:1001D0000F931F93CF93DF93EC0181E0888F9B8D6A
:1001E0008C8D981305C0E889F989808185FD24C02C
:1001F000F62E0B8D10E00F5F1F4F0F731127E02EAF
:100200008C8DE8120CC00FB607FCFACFE889F9898B
:10021000808185FFF5CFCE010E94C500F1CF8B8D87
:10022000FE01E80FF11DE35AFF4FF0820B8FEA89C0
:10023000FB898081806207C0EE89FF896083E8893D
:10024000F98980818064808381E090E0DF91CF91A3
:100250001F910F91FF90EF900895CF93DF93EC01E2
:10026000888D8823C9F0EA89FB89808185FD05C0D6
:10027000A889B9898C9186FD0FC00FB607FCF5CF10
:10028000808185FFF2CFA889B9898C9185FFEDCF58
:10029000CE010E94C500E7CFDF91CF91089580E0A5
:1002A00090E0892B29F00E94BB0081110C94000082
:1002B0000895CB0108957F928F929F92AF92BF9243
:1002C000CF92DF92EF92FF920F931F93CF93DF9322
:1002D000EC0149015A018B01C12CD12C7601C814C3
:1002E000D904EA04FB0484F5F80171908F018F852D
:1002F00080FF0BC0E881F9810084F185E02D20E1C9
:1003000044E060E070E0CE010995EB85FC858D85C9
:100310009E85E817F90738F470828B859C850196D5
:100320009C878B870BC0E881F981672D70E0028C78
:10033000F38DE02DCE010995019649F02FEFC21AF9
:10034000D20AE20AF20ACBCFB401C50102C0B6015B
:10035000C701DF91CF911F910F91FF90EF90DF9038
:10036000CF90BF90AF909F908F907F900895CF9344
:10037000DF93EC01E881F9810288F389E02D09958A
:100380008F3F2FEF920731F02D813E812F5F3F4F3E
:100390003E832D83DF91CF9108958FEF9FEF0895D6
:1003A00060E070E0CB01089580E090E00895CB011B
:1003B0000895CF93DF93EC0188899989DC01ED9151
:1003C000FC910480F581E02D0995892BA9F388899A
:1003D0009989DC01ED91FC910680F781E02DDF9198
:1003E000CF910994CF93DF93EC0188899989DC013F
:1003F000ED91FC910480F581E02D0995892BA9F3FD
:1004000088899989DC01ED91FC910084F185E02DCA
:10041000DF91CF910994AF92BF92CF92DF92EF928A
:10042000FF920F931F93CF93DF9300D000D0CDB7EF
:10043000DEB78C015B01C12CD12C7601F8018089DB
:100440009189DC01ED91FC910680F781E02D2983F3
:100450003A834B835C83099529813A814B815C8186
:100460008F3F71F0C216D306E406F5064CF4D501B1
:100470008D935D01BFEFCB1ADB0AEB0AFB0ADECFDF
:10048000C701B6010F900F900F900F90DF91CF91A1
:100490001F910F91FF90EF90DF90CF90BF90AF90A2
:1004A0000895DC0150968D919C915197DC01ED915E
:1004B000FC910480F581E02D099480E090E008959E
:1004C00080E090E0089580E090E0089580E090E082
:1004D000089508950F931F93CF93DF938C01EB0141
:1004E0006F3F8FEF780719F480E090E00FC06A301B
:1004F00031F46DE0F801808991890E94160F6C2F0C
:10050000F801808991890E94160FCE01DF91CF9169
:100510001F910F9108958F929F92BF92CF92DF9279
:10052000EF92FF920F931F93CF93DF9300D000D0F1
:10053000CDB7DEB78C014B01C12CD12C7601C21690
:10054000D306E406F50644F5F401B1904F01FAE054
:10055000BF120EC06DE0F8018089918929833A832A
:100560004B835C830E94160F5C814B813A81298109
:100570006B2DF8018089918929833A834B835C83B1
:100580000E94160FFFEFCF1ADF0AEF0AFF0A5C8105
:100590004B813A812981D3CFCA01B9010F900F90C5
:1005A0000F900F90DF91CF911F910F91FF90EF90DF
:1005B000DF90CF90BF909F908F9008950C94E91E8C
:1005C000089508950C94E91EDC01ED91FC91369795
:1005D00020813181820F931F0C94E202FB01208164
:1005E0003181FC0131832083FB0142815381F90178
:1005F000369720813181FC01E20FF31F5183408344
:10060000089528EA31E0FC013183208322EB31E0B8
:10061000318F208F68EB71E00C94EE02DC01ED91DC
:10062000FC91369720813181820F931F0C94010336
:10063000CF93DF93EC010E940103CE01DF91CF91B4
:100640000C94E91EDC01ED91FC91369720813181FB
:10065000820F931F0C9418030C94E91E20E232E0E1
:10066000FC01318320832AE232E0358B248B60E366
:1006700072E00C940508DC01ED91FC913697208125
:100680003181820F931F0C942E03CF93DF93EC01E3
:100690000E942E03CE01DF91CF910C94E91EDC0164
:1006A000ED91FC91369720813181820F931F0C943C
:1006B0004503DC01ED91FC91369720813181820F59
:1006C000931F0C94BA07CF93DF93EC010E94BA07F3
:1006D000CE01DF91CF910C94E91EDC01ED91FC91EC
:1006E000369720813181820F931F0C9463031F92F0
:1006F0000F920FB60F9211242F933F934F935F9356
:100700006F937F938F939F93AF93BF93EF93FF93D9
:1007100084E894E00E94C500FF91EF91BF91AF91F2
:100720009F918F917F916F915F914F913F912F9109
:100730000F900FBE0F901F9018951F920F920FB63B
:100740000F9211242F938F939F93EF93FF93E09138
:100750009404F09195048081E0919A04F0919B04B7
:1007600082FD12C0908180919D048F5F8F732091D4
:100770009E04821751F0E0919D04F0E0EC57FB4F8E
:10078000958F80939D0401C08081FF91EF919F918F
:100790008F912F910F900FBE0F901F90189590E0A2
:1007A000FC01E255FF4F3491FC01EA57FF4F2491C1
:1007B000FC01EE58FF4FE491EE2309F43BC03323D4
:1007C00039F1333091F038F43130A9F0323001F59D
:1007D00084B58F7D12C0373091F03830A1F03430BD
:1007E000B9F4809180008F7D03C0809180008F7765
:1007F000809380000DC084B58F7784BD09C080913F
:10080000B0008F7703C08091B0008F7D8093B000DF
:10081000F0E0EE0FFF1FEC55FF4FA591B4918FB79D
:10082000F894EC91611103C020952E2301C02E2B6A
:100830002C938FBF0895CF93DF9390E0FC01EA578C
:10084000FF4F2491FC01EE58FF4F8491882361F102
:1008500090E0880F991FFC01E656FF4FC591D49197
:10086000FC01EC55FF4FA591B491611109C09FB7F0
:10087000F8948881209582238883EC912E230BC0E5
:10088000623061F49FB7F8943881822F809583237A
:100890008883EC912E2B2C939FBF06C08FB7F894C2
:1008A000E8812E2B28838FBFDF91CF9108953FB72A
:1008B000F8948091530490915404A0915504B09100
:1008C000560426B5A89B05C02F3F19F00196A11D1F
:1008D000B11D3FBFBA2FA92F982F8827820F911DD6
:1008E000A11DB11DBC01CD0142E0660F771F881F1D
:1008F000991F4A95D1F708952FB7F89460914F0446
:100900007091500480915104909152042FBF08952A
:100910001F920F920FB60F9211242F933F938F9334
:100920009F93AF93BF9380914F0490915004A091F7
:100930005104B091520430914E0423E0230F2D371F
:1009400020F40196A11DB11D05C026E8230F0296D3
:10095000A11DB11D20934E0480934F049093500429
:10096000A0935104B0935204809153049091540485
:10097000A0915504B09156040196A11DB11D80931C
:10098000530490935404A0935504B0935604BF911C
:10099000AF919F918F913F912F910F900FBE0F902C
:1009A0001F9018952F923F924F925F926F927F9275
:1009B0008F929F92AF92BF92CF92DF92EF92FF926F
:1009C0000F931F93CF93DF93CDB7DEB72B970FB65F
:1009D000F894DEBF0FBECDBFDC01D896BC91B983C1
:1009E000B11102C01982E4C09B878A870E947C04EF
:1009F0006A837B838C839D83EA85FB8580A191A19B
:100A0000A2A1B3A14A815B816C817D81481B590BF6
:100A10006A0B7B0B84A595A5A6A5B7A54817590712
:100A20006A077B07F8F2028CF38DE02D80809180BD
:100A3000A280B380AA85BB855E96ED91FC915F97FD
:100A4000A501940160817181828193810E94F218D5
:100A50002B013C01EA85FB85208931894289538934
:100A60000E94C31AAA85BB8594962D913D914D9104
:100A70005C9197970E94F3186B017C01EA85FB85D6
:100A800064A375A386A397A324A835A806A917A9CC
:100A90009101A8010E94BE1A18161CF4C101D801C8
:100AA00018C0AA85BB85D0968D919D910D90BC9163
:100AB000A02D8E839F83A887B9879C01AD01C701B4
:100AC000B6010E945F1987FF0AC08E819F81A885A9
:100AD000B985EA85FB8584A395A3A6A3B7A3AA85B8
:100AE000BB851C962D913D914D915C911F97C30143
:100AF000B2010E94C31AEA85FB8524A135A146A153
:100B000057A10E94F3186B017C01AA85BB859896BA
:100B10002D913D914D915C919B97C501B4010E942F
:100B2000F218EA85FB8524893589468957890E9410
:100B3000C31A9B01AC01C701B6010E94F2186B01F8
:100B40007C019101A8010E94BE1A1816BCF0AA856A
:100B5000BB85D0962C90D097D1963C90D197D296C9
:100B60000C91D297D3961C919101A801B601C701AF
:100B70000E945F1987FD02C016018701AA85BB8507
:100B80005C96ED91FC915D97C101D80180839183C2
:100B9000A283B383EA85FB8580A691A6A2A6B3A60D
:100BA0008A819B81AC81BD8180A391A3A2A3B3A3C1
:100BB00089812B960FB6F894DEBF0FBECDBFDF91B3
:100BC000CF911F910F91FF90EF90DF90CF90BF904A
:100BD000AF909F908F907F906F905F904F903F90DD
:100BE0002F9008958F929F92AF92BF92CF92DF92F3
:100BF000EF92FF920F931F93CF93DF93DC0128E0D6
:100C000030E081E088248A94912C0FE010E053E2D8
:100C1000E52EF12C77EDC72ED12C9C911196ED91FC
:100C2000FC911297592F5095782F762381F0F894E4
:100C30007281572352835181592B5183E7012197A8
:100C4000F1F75281952B92837894F6010FC0F894B6
:100C50007281572352835181592B5183E40121978B
:100C6000F1F75281952B92837894F8013197F1F73F
:100C7000880F2150310989F6411114C0F89411965A
:100C8000ED91FC91129791818C91809589238183BC
:100C90001196ED91FC91129792818C918095892308
:100CA00082837894DF91CF911F910F91FF90EF9005
:100CB000DF90CF90BF90AF909F908F900895CF928C
:100CC000DF92EF92FF920F931F93CF93DF931F92C8
:100CD000CDB7DEB78C01F62E40E065E579830E9442
:100CE000F205CF2C7981D72E760188E0E80EF11C31
:100CF000F60161916F0140E0C8010E94F205CE1437
:100D0000DF04B1F70F90DF91CF911F910F91FF900A
:100D1000EF90DF90CF900895FC0190810180F281E7
:100D2000E02DF8948181292F209582238183789466
:100D30008DE743E050E0815021F1DA011197F1F79E
:100D400030813923C1F3F8948281822382838181A7
:100D5000892B81837894ABE7B7E01197F1F7F8948A
:100D6000818128232183A3E1B1E01197F1F78081EC
:100D7000982381E009F080E07894E3E6F6E031978B
:100D8000F1F7089508950895CF93DF93C0918204F9
:100D9000D0918304E881F9810480F581E02DCE01B2
:100DA0000995892BB9F3E881F9810680F781E02D57
:100DB000CE01DF91CF9109941F93CF93DF93182F2A
:100DC000C0918204D09183048A3041F4E881F98192
:100DD0000190F081E02D6DE0CE010995E881F98167
:100DE0000190F081E02D612FCE01099521E030E0E6
:100DF000019711F420E030E0C901DF91CF911F91FC
:100E000008958F929F92AF92BF92CF92DF92EF920E
:100E1000FF92CF934B015C010E94F2186B017C01A1
:100E200020E030E0A9010E94BE1A181624F0F7FA5B
:100E3000F094F7F8F094A5019401C701B6010E945F
:100E40006419C1E027E137EB41ED58E30E94BE1A77
:100E500018160CF0C0E08C2FCF91FF90EF90DF9030
:100E6000CF90BF90AF909F908F9008950895089570
:100E700008950895DC01D2962D913C91D3972F5F70
:100E80003F4F233031052CF4D3963C932E93D297C9
:100E90000895FC0113AA12AA0190F081E02D0084AC
:100EA000F185E02D09948F929F92AF92BF92EF92BD
:100EB000FF920F931F93CF93DF93EC01ECA5FDA559
:100EC00080809180A280B3802AA93BA94CA95DA90A
:100ED000C501B4010E940107EEA4FFA408A919A945
:100EE00081111AC02EA93FA948AD59ADF701608103
:100EF0007181828193810E94010781110DC02AAD09
:100F00003BAD4CAD5DADF801608171818281938113
:100F10000E9401078823B9F08AAA9BAAACAABDAA9D
:100F2000F70180819181A281B3818EAB9FABA8AF85
:100F3000B9AFF80180819181A281B3818AAF9BAF63
:100F4000ACAFBDAF81E0DF91CF911F910F91FF90CA
:100F5000EF90BF90AF909F908F900895089508955F
:100F60000895089580E008950895089508950895D6
:100F70004296089508950C94E91ECF93DF93EC01F7
:100F800060E08E810E94CF0361E08E810E94CF03DA
:100F900060E08E810E94CF038BE891E00197F1F72A
:100FA000DF91CF910895CF92DF92EF92FF920F934E
:100FB0001F93CF93DF9300D000D0CDB7DEB77E0173
:100FC00025E0E20EF11C8E010F5F1F4F6C01C01A6D
:100FD000D10AC601800F911F0E94881FF8018193DA
:100FE0008F01EE15FF05A9F769817A818B819C81BC
:100FF0000F900F900F900F90DF91CF911F910F9155
:10100000FF90EF90DF90CF900895FB012081318118
:10101000FC0131832083FB0142815381F901369722
:1010200020813181FC01E20FF31F51834083089539
:101030000895CF92DF92EF92FF920F931F93CF9379
:10104000DF937C016C0187E0C80ED11CC0E0D0E0CA
:10105000062F10E0B8010C2E02C0759567950A9412
:10106000E2F76170F60181916F010E94CF03219632
:10107000C430D10579F7C701DF91CF911F910F914E
:10108000FF90EF90DF90CF900C94BD07CF92DF924E
:10109000EF92FF920F931F93CF93DF93EC01F62E05
:1010A000642F8C810E94CF038D818F3F19F060E007
:1010B0000E94CF038F850F2D10E084FF25C06E01A5
:1010C00087E0C80ED11CE12CF12CB8010E2C02C017
:1010D000759567950A94E2F76170F60181916F0149
:1010E0000E94CF03FFEFEF1AFF0A88E0E816F10431
:1010F00061F7CE01DF91CF911F910F91FF90EF909B
:10110000DF90CF900C94BD07B80184E0759567958A
:101110008A95E1F7CE010E9419086F2DCE01DF916B
:10112000CF911F910F91FF90EF90DF90CF900C9493
:10113000190841E00E94460881E090E0089540E0EF
:101140000C944608CF92DF92EF92FF92CF93DF93F9
:101150007C016B01EA016DEC73E084E894E00E948D
:101160001D0FB70184E894E00E941D0F67ED73E046
:1011700084E894E00E941D0F0D2C000CEE08FF087F
:10118000F7FE0EC06DE284E894E00E94160F44273B
:101190005527BA014C195D096E097F092AE003C081
:1011A0002AE0B701A60184E894E00E946F0F67ED82
:1011B00073E084E894E00E941D0FBE0184E894E08F
:1011C000DF91CF91FF90EF90DF90CF900C94030EC2
:1011D0004F925F926F927F928F929F92AF92BF9247
:1011E000CF92DF92EF92FF920F931F93CF93DF93F3
:1011F00000D000D0CDB7DEB78C014A015B01CB0136
:10120000BA010E94D6192B013C015F926F9381EEC7
:10121000C82E83E0D82EDF92CF921F930F930E94A7
:101220004C1B0F900F900F900F900F900F9020E09D
:1012300030E44CE156E4C501B4010E94BE1A87FFB8
:10124000A1C020E030E04AE754ECC501B4010E949F
:101250005F1918160CF096C020E030E048EC52E41C
:10126000C501B4010E94BE1A87FF0AC020E030E029
:1012700040E251ECC501B4010E945F1918166CF0F0
:10128000D8010D900020E9F7CD0104978017910750
:1012900009F07BC064EE72E071C0B201550C880B9E
:1012A000990B0E940E1A9B01AC01C501B4010E946A
:1012B000F2182B013C0120E030E040E251E4C5018E
:1012C000B4010E94BE1A9E012F5F3F4F790187FF34
:1012D00009C020E030E0A901C501B4010E945F19F6
:1012E00087FF24C06FED73E0C8010E943A1B20E025
:1012F00030E040E251E4C301B2010E94C31A0E94EF
:10130000D6197F936F9381EE93E09F938F93FF9213
:10131000EF920E944C1BB701C8010E943A1B0F902C
:101320000F900F900F900F900F902FC06FED73E004
:10133000C8010E943A1B20E030E048EC52E4C301AF
:10134000B2010E94C31A0E94D6195B017F936F936A
:10135000DF92CF92FF92EF920E944C1B0F900F9062
:101360000F900F900F900F903AE0A316B1042CF459
:1013700064EB72E0C8010E943A1BB701C8010E94E9
:101380003A1B03C08CED93E001C0C8010F900F9091
:101390000F900F90DF91CF911F910F91FF90EF90E1
:1013A000DF90CF90BF90AF909F908F907F906F9085
:1013B0005F904F9008954F925F926F927F92AF929D
:1013C000BF92CF92DF92EF92FF920F931F93CF9332
:1013D000DF93CDB7DEB76B970FB6F894DEBF0FBEC5
:1013E000CDBF5C012801390121E030E0CE0101963A
:1013F0000E94E80821E030E0B301A201CE01479647
:101400000E94E80821E030E0B701A601CE01429633
:101410000E94E80864EE73E0CE0101960E943A1B38
:10142000BE01695E7F4FCE0101960E943A1B64EEB9
:1014300073E0CE0101960E943A1BBE016E5E7F4FA3
:10144000CE0101960E943A1BBE016F5F7F4FC5011E
:101450000E94451B6B960FB6F894DEBF0FBECDBF42
:10146000DF91CF911F910F91FF90EF90DF90CF9080
:10147000BF90AF907F906F905F904F9008958F9244
:101480009F92AF92BF92CF92DF92FF920F931F93E2
:10149000CF93DF93CDB7DEB761970FB6F894DEBF79
:1014A0000FBECDBF8C01FC01C6A4D7A4F60180807D
:1014B0009180A280B380FC0120A931A942A953A93F
:1014C000C501B4010E940107F82E8823B9F0F80184
:1014D00080AA91AAA2AAB3AAF60140815181628191
:1014E000738120E030E0CE0101960E94E808BE0141
:1014F0006F5F7F4FC80142960E94451B8F2D6196FA
:101500000FB6F894DEBF0FBECDBFDF91CF911F9114
:101510000F91FF90DF90CF90BF90AF909F908F90F2
:1015200008953F924F925F926F927F928F929F9217
:10153000AF92BF92CF92DF92EF92FF920F931F93E1
:10154000CF93DF9300D000D0CDB7DEB74C01A62EED
:10155000372E0CE0609F002D112410E07C0183E009
:10156000B82E3701F70160817181072E000C880BBE
:10157000990B0E940E1A69837A838B839C83CE0118
:1015800001962C01C12CD12CF20161912F01C601D1
:10159000800F911F0E94901FFFEFCF1ADF0A24E0F7
:1015A000C216D10489F7C8010E94D3070E94D61938
:1015B000E2E0EE0EF11CF30120813181261737079E
:1015C000B1F4AB01B80187EE93E00E94A208BA948F
:1015D0000C5F1F4FB110C5CFF401408151816A2DBE
:1015E000732D8EEF93E00E94A20881E001C080E09D
:1015F0000F900F900F900F90DF91CF911F910F914F
:10160000FF90EF90DF90CF90BF90AF909F908F9022
:101610007F906F905F904F903F900895DC019E9671
:10162000ED91FC919F97608171819C968D919C9129
:101630009D970C94910AAF92BF92CF92DF92EF9256
:10164000FF920F931F93CF93DF937C01D62EC72E6B
:10165000CCE06C9FC02D1124D0E08C015C0186E0B1
:10166000A80EB11CCE010E94D3070E94D619F80122
:10167000619371938F012496EA15FB0599F7F701A1
:10168000408151816D2D7C2D87EE93E00E94A20850
:1016900081E0DF91CF911F910F91FF90EF90DF904C
:1016A000CF90BF90AF900895CF93DF93EB01CC0F15
:1016B000DD1FC80FD91F4881598185E194E00E9440
:1016C000A20868817981072E000C880B990B0E9473
:1016D0000E1ADF91CF9108958F929F92AF92BF9291
:1016E000CF92DF92EF92FF920F931F93CF93DF93EE
:1016F0008C01FC01128E118E848595850E941B0B36
:10170000F801C285D38588AD811130C0EC8DFD8D87
:10171000C080D180E280F380CCA2DDA2EEA2FFA245
:10172000EA8DFB8D80819181A281B38188A799A7E1
:10173000AAA7BBA78CA89DA8AEA8BFA8A501940185
:10174000C701B6010E94BE1A181664F088A899A8AD
:10175000AAA8BBA8A5019401C701B6010E945F1900
:1017600087FF04C08CA29DA2AEA2BFA281E088AF79
:10177000F801808F60E070E0848595850E94540BAD
:101780000E94D619F801218D328DAB01B90189E291
:1017900094E0DF91CF911F910F91FF90EF90DF9038
:1017A000CF90BF90AF909F908F900C94A208EF9233
:1017B000FF920F931F93CF93DF93CDB7DEB7609760
:1017C0000FB6F894DEBF0FBECDBF8C01FC0185A51E
:1017D0008F9384A58F9381EE93E09F938F93CE0197
:1017E00001967C019F938F930E944C1BB701C80107
:1017F00042960E94451B0F900F900F900F900F90F4
:101800000F9060960FB6F894DEBF0FBECDBFDF918C
:10181000CF911F910F91FF90EF900895DC019A9660
:10182000ED91FC919B97208131819D963C932E9365
:101830009C970C94D70BDC019C962D913C919D9725
:101840009A96ED91FC919B97318320830C94D70B52
:10185000FC0124A535A52150310935A724A70C94F6
:10186000D70BFC0124A535A52F5F3F4F35A724A733
:101870000C94D70B6F927F928F929F92AF92BF92F0
:10188000CF92DF92EF92FF920F931F93CF93DF934C
:10189000EC01EEA5FFA56081718188A999A968175F
:1018A000790731F08CA59DA50E941B0B1BAA1AAAD3
:1018B0006CA47DA4F30164817581072E000C880B54
:1018C000990B0E940E1A6B017C01F30162817381F6
:1018D000072E000C880B990B0E940E1A4B015C011D
:1018E000F30180819181BC01990F880B990B0E94B3
:1018F0000E1AAB01BC0195018401CE0142960E94F3
:10190000DB09DF91CF911F910F91FF90EF90DF9056
:10191000CF90BF90AF909F908F907F906F900895E1
:101920000F931F93CF93DF938C01FC0122A933A95E
:10193000C4A5D5A523303105B0F4220F331FC20F43
:10194000D31F68817981072E000C880B990B0E94A8
:101950000E1A20E030E040E05FE30E94F2180E949F
:10196000D61979836883C801DF91CF911F910F91B8
:101970000C943A0C0F931F93CF93DF938C01FC01CF
:1019800022A933A9C4A5D5A523303105B0F4220F6F
:10199000331FC20FD31F68817981072E000C880B7B
:1019A000990B0E940E1A20E030E040E05FE30E94B5
:1019B000F3180E94D61979836883C801DF91CF910B
:1019C0001F910F910C943A0CCF93DF93EC010E947E
:1019D0003A0CCE014296DF91CF910895CF92DF92DB
:1019E000EF92FF920F931F93DC01D096ED91FC9143
:1019F000D197C080D180E280F3809E96ED91FC91DA
:101A00009F9700811181228133819C96ED91FC91F9
:101A10009D97408151816281738142960E94DB09CA
:101A20001F910F91FF90EF90DF90CF900895CF938B
:101A3000DF93EC010E94EE0CCE014296DF91CF9134
:101A4000089584E090E00E94541E24E030E0FC0100
:101A50003183208313821282089584E090E00E94F3
:101A6000541E22E030E0FC01318320831382128275
:101A7000089584E090E00E94541E21E030E0FC01D3
:101A80003183208313821282089584E090E00E94C3
:101A9000541E23E030E0FC01318320831382128244
:101AA0000895CF93DF93EC0184E090E00E94541EF0
:101AB000FC0111821082D383C283DF91CF910895FC
:101AC000EF92FF920F931F93CF93DF93EC0162305D
:101AD00018F08F8588608F876B8B1C8A80E48D8BD4
:101AE00080E18E8B80E58F8B61E08C810E941B04EE
:101AF0008D818F3F19F061E00E941B0461E08E81AF
:101B00000E941B047E0187E0E80EF11C00E010E05B
:101B10008F8584FD03C084E090E002C088E090E0FF
:101B2000081719074CF461E0F70181917F010E94C9
:101B30001B040F5F1F4FECCF8BE39DE00197F1F784
:101B400060E08C810E94CF0360E08E810E94CF0311
:101B50008D818F3F19F060E00E94CF036F8564FD97
:101B60001DC063E0CE010E9419080BE416E4C80111
:101B70000197F1F763E0CE010E941908C8010197AF
:101B8000F1F763E0CE010E94190883E592E0019726
:101B9000F1F762E0CE010E94190816C06062CE0122
:101BA0000E949F088BE496E40197F1F76F856062CD
:101BB000CE010E949F0883E592E00197F1F76F85BF
:101BC0006062CE010E949F086F856062CE010E9414
:101BD0009F0884E0888B6CE0CE010E949F0861E042
:101BE000CE010E949F088BE39FE10197F1F782E00D
:101BF000898B66E0CE01DF91CF911F910F91FF900D
:101C0000EF900C949F08CF92DF92EF92FF920F9388
:101C10001F93CF93DF938C016B01770FEE08FF08C2
:101C2000F7FE12C06DE20E94160FEC014427552703
:101C3000BA014C195D096E097F092AE0C8010E94AA
:101C40006F0FC80FD91F06C02AE0B701A6010E9476
:101C50006F0FEC0164E873E0C8010E941D0F8C0F48
:101C60009D1FDF91CF911F910F91FF90EF90DF901B
:101C7000CF900895209161043091620482179307F8
:101C800010F00E94351B880F991F20915D04309140
:101C90005E04820F931F0895CF92DF92EF92FF921E
:101CA0000F931F93CF93DF936C017A018B01C0E0F8
:101CB000D0E0CE15DF0589F0D8016D918D01D601F8
:101CC000ED91FC910190F081E02DC6010995892BE1
:101CD00011F47E0102C02196ECCFC701DF91CF91B4
:101CE0001F910F91FF90EF90DF90CF9008950E9489
:101CF000351BCF92DF92EF92FF920F931F93CF93FA
:101D0000DF930091610410916204E80121960C17A1
:101D10001D0708F057C07C0180915F04909160041A
:101D20008C179D07A0F59801275F3F4F82179307F7
:101D300070F5C0905D04D0905E04309360042093F1
:101D40005F04C901880F991F0E94541E90935E047E
:101D500080935D04D60140E050E040175107A1F0A8
:101D6000E0915D04F0915E049A01220F331FE20FAF
:101D7000F31F309729F08D919C9111979183808367
:101D80004F5F5F4F1296E9CFC6010E94E91E809116
:101D90006104909162049C01220F331F8C179D07F0
:101DA000A0F4E0915D04F0915E04E20FF31F309720
:101DB00029F0D7014D915C915183408301962E5FAC
:101DC0003F4FECCFC017D10720F4D0936204C093EB
:101DD0006104DF91CF911F910F91FF90EF90DF9001
:101DE000CF900895CF93DF932091610430916204E6
:101DF00082179307B8F4EC01809164049091650414
:101E00000E943A0EDC018D919C91DC01ED91FC91D8
:101E10000084F185E02D0995D0936504C093640496
:101E200081E001C080E0DF91CF910895DC01ED9168
:101E3000FC910190F081E02D09946115710579F014
:101E4000FB0101900020E9F73197AF01461B570BCA
:101E5000DC01ED91FC910280F381E02D099480E09A
:101E600090E0089561E086E694E00E949F088BE38D
:101E70009FE10197F1F780916404909165040E94BD
:101E80003A0EDC016D917C916E5F7F4F86E694E0A7
:101E90000E941D0FE0917904E23010F4E15001C07E
:101EA000E1E0F0E0E359FB4F6585606886E694E089
:101EB0000E949F0880916404909165040E943A0EEC
:101EC000FC0180819181DC01ED91FC910190F08118
:101ED000E02D0995BC0186E694E00C941D0F4F920D
:101EE0005F926F927F92EF92FF920F931F93CF9327
:101EF000DF93CDB7DEB7A1970FB6F894DEBF0FBE64
:101F0000CDBF7C01FA01CB0119A2223008F42AE0EE
:101F10008E010F5D1F4F422E512C612C712CBF0181
:101F2000A30192010E94CA18F901CA0101501109C6
:101F30006A3014F4605D01C0695CD8016C93232B96
:101F4000242B252B61F7B801C7010E941D0FA19614
:101F50000FB6F894DEBF0FBECDBFDF91CF911F91BA
:101F60000F91FF90EF907F906F905F904F9008954A
:101F7000CF93DF93CDB7DEB769970FB6F894DEBF86
:101F80000FBECDBF789484B5826084BD84B5816076
:101F900084BD85B5826085BD85B5816085BD809134
:101FA0006E00816080936E001092810080918100AC
:101FB00082608093810080918100816080938100A4
:101FC000809180008160809380008091B100846066
:101FD0008093B1008091B00081608093B0008091C7
:101FE0007A00846080937A0080917A008260809386
:101FF0007A0080917A00816080937A0080917A00E3
:10200000806880937A001092C100E0919404F0916E
:10201000950482E08083E0919004F0919104108215
:10202000E0919204F09193048FEC808310929C04D1
:10203000E0919804F091990486E08083E091960401
:10204000F0919704808180618083E0919604F09103
:102050009704808188608083E0919604F0919704D2
:10206000808180688083E0919604F091970480815C
:102070008F7D8083E0915704F0915804618D728DBB
:1020800040E050E08EE392E00E94A208E090570406
:10209000F0905804D70159966D917C915A9740E081
:1020A00050E08DE492E00E94A20889E390E00E9453
:1020B000541E8C01C7018796F801958F848F08976D
:1020C000938F828F0496978F868F10AE10AA11AAD5
:1020D00012AA13AA80E090E0AFE7B3E484AB95AB1B
:1020E000A6ABB7AB84E690E0A0E0B0E084A795A7EC
:1020F000A6A7B7A7118E108E80E090E0A0E2B2E410
:1021000080839183A283B38340E050E060E07FE36B
:10211000448355836683778340E050E060E87FE343
:10212000408751876287738784879587A687B7879B
:102130008DEC9CECACE4BDE3808B918BA28BB38BDC
:1021400080E090E0A0E2B1E4848B958BA68BB78B06
:102150000E947C04D8019C968D909D90AD90BC907F
:102160009F97DC01CB0188199909AA09BB09F801DD
:1021700080A391A3A2A3B3A3D7011B961C930E9394
:102180001A976D917C91072E000C880B990B0E9479
:102190000E1A4B015C0120E030E0A9010E945F199A
:1021A00018160CF05AC0F80110AA11AA12AA13AA04
:1021B00084AA95AAA6AAB7AA80AD882309F44DC01F
:1021C000C48CD58CF6014080518062807380A5015B
:1021D0009401C301B2010E94BE1A18163CF4D60144
:1021E0008D929D92AD92BC9213970EC020E030E08C
:1021F000A901C301B2010E945F1987FF05C0F60162
:102200001082118212821382D80194964D905D90B3
:102210006D907C909797D4968D909D90AD90BC904A
:10222000D797A5019401C301B2010E94BE1A1816E6
:102230007CF0D801D0968D909D90AD90BC90D397B6
:10224000A5019401C301B2010E945F1987FF05C077
:10225000F80184A295A2A6A2B7A261E0D7011696C2
:102260008C910E941B048EE090E00E94541E6C0131
:10227000F7010085118560E0802F0E941B04112763
:10228000F801EA57FF4FE491D601EC93F801EE58BC
:10229000FF4FE491F0E0EE0FFF1FE859FF4F8591EB
:1022A0009491F601928381831386158614863B965A
:1022B000C60103961292E817F907E1F7D7011F96B6
:1022C000DC92CE921E9786E090E00E94541EF701A9
:1022D0009587848760E070E00E941B0BD7015A96B7
:1022E0001C921E925997F701138E148E158E168E1E
:1022F00088E2808B8FEF818B8CE9828B8BEC838BD8
:1023000080E6848B86E1858B83E0868B82E7878BF2
:1023100040E050E060E070E086E692E00E94A208B3
:10232000E0915704F0915804618D728D40E050E0C7
:102330008DE792E00E94A2084BE150E06DE270E070
:102340008DE892E00E94A2080DE210E01B8B0A8B40
:102350008BE190E09D8B8C8B8FE190E09F8B8E8B3F
:1023600060E070E0CE0142960E94910A4AE150E09E
:102370006DE270E08DE892E00E94A2081B8B0A8B50
:102380008AE190E09D8B8C8B8DE190E09F8B8E8B12
:1023900061E070E0CE0142960E94910A41E250E075
:1023A00060E270E08DE892E00E94A20880E290E096
:1023B0009B8B8A8B81E290E09D8B8C8B82E290E0FC
:1023C0009F8B8E8B62E070E0CE0142960E94910A54
:1023D00060E070E0CE0142960E94540B0E94D61934
:1023E00084E894E00E94030E60E070E0CE01429623
:1023F0000E941B0B60E070E0CE0142960E94540BDD
:102400000E94D61984E894E00E94030EE0915704DC
:10241000F0915804618D728D40E050E08AE992E0BD
:102420000E94A20881E090E00E94510D7C0181E0B1
:1024300090E00E94510D6C010E94210D5C010E94F0
:10244000210D4C018AE290E00E94541E8C01FC0197
:102450008AE391E08193919367EA72E0CF010E9451
:10246000451B66EB72E0C80142960E94451BD801ED
:1024700093969C928E9292979596BC92AE929497D8
:102480009796DC92CE9296979996FC92EE929897B8
:102490001A830983FE0131967F01CF010E94790ED4
:1024A00082E090E00E94510D6C0182E090E00E9479
:1024B000510D5C010E94210D4C010E94210D3C0137
:1024C00084E390E00E94541E8C018AE091E0D801E0
:1024D0008D939C9380E090E0A0E0BFE3F80182A799
:1024E00093A7A4A7B5A7BAE42B2EB4E03B2E37A63A
:1024F00026A666EC72E0C80102960E94451BD80130
:1025000093967C926E92929795969C928E929497C7
:102510009796BC92AE9296979996DC92CE929897A7
:102520009E96ED91FC919F974081518162817381CC
:1025300020E030E0C7010E94E808B701C8014296D8
:102540000E94451B1A830983C7010E94790E83E00C
:1025500090E00E94510D6C010E94450D5C010E94AB
:102560002D0D4C010E94390D3C018EE290E00E943D
:10257000541E8C018AE1482E81E0582EF8015182C8
:10258000408280E894E093A782A765ED72E0C801DD
:1025900002960E94451B66E873E0C80142960E94BD
:1025A000451BD80193967C926E92929795969C9239
:1025B0008E9294979796BC92AE9296979996DC924B
:1025C000CE9298979A96ED91FC919B9780819181FC
:1025D0009D969C938E939C97C8010E94D70B1A835B
:1025E0000983C7010E94790E84E090E00E94510D9A
:1025F0003C010E94450D6C010E942D0D5C010E9462
:10260000390D4C018EE290E00E94541E8C01FC01B9
:10261000518240828EE394E093A782A766EE72E037
:10262000C80102960E94451B66E873E0C801429605
:102630000E94451BD80193969C928E9292979596F4
:10264000BC92AE9294979796DC92CE92969799967A
:102650007C926E9298979A96ED91FC919B978081CF
:1026600091819D969C938E939C97C8010E94D70B55
:102670001A830983C7010E94790E81E090E00E94CD
:10268000510D6C010E94450D5C010E942D0D4C0105
:102690000E94390D3C0180E490E00E94541E8C01A0
:1026A0008091800490918104998F888F8AE291E0D3
:1026B000F8019183808394EF492E5524539453A6B7
:1026C00042A6CE01489697A786A711AA10AA13AAD8
:1026D00012AA68EF72E0C80102960E94451BD80159
:1026E00093967C926E92929795969C928E929497E6
:1026F0009796BC92AE9296979996DC92CE929897C6
:1027000086E090E00E94541EF80195A784A706A4D5
:10271000F7A5E02D608171810E941B0BC8010E940A
:102720003A0C1A830983C7010E94790E80E090E079
:102730000E94510D3C0180E090E00E94510D8C01FF
:102740000E94210D6C010E94210D5C018EE390E03E
:102750000E94541E4C018AE491E0D40111969C938E
:102760008E939B965C924E929A979D963C922E9257
:102770009C9786E494E09F969C938E939E9782E428
:1027800094E0D1969C938E93D09769E073E0C40156
:1027900002960E94451B66E873E0C40142960E94BF
:1027A000451BF401B3A2A2A2D5A2C4A217A306A3FB
:1027B00071A660A6C4010E94EE0C9A828982C701AC
:1027C0000E94790E0E94320FE0915704F091580454
:1027D000618D728D40E050E08AE992E00E94A2088B
:1027E00023E2222E312CE0915704F0915804618DA0
:1027F000728D40E050E08AE193E00E94A20880E4FC
:1028000080937C0080917A00806480937A0080912C
:102810007A0086FDFCCF809178002091790090E0CD
:10282000922B9093410480934004893EF3E09F07EC
:10283000B4F4823391050CF404C38A3F91050CF47F
:1028400004C3823C21E092070CF402C38A3832E0D0
:1028500093070CF401C3823593400CF401C3A5E047
:10286000CA2ED12C80916404909165040E943A0E86
:10287000FC0180819181DC01ED91FC910284F38562
:10288000E02D099581110E94320F0091570410919B
:1028900058040E947C04F801238D348DAB01B901EA
:1028A0008BE393E00E94A208D8015B964D905D9067
:1028B0006D907C905E97B8EC4B0E511C611C711CA6
:1028C0000E947C04641575058605970508F470C19F
:1028D0000E947C04F801638F748F858F968F8685A4
:1028E00097850E948C065801F0E1AF0EB11CB5012E
:1028F000D8011E968D919C911F970E945F0640E023
:102900006EEBF801868597850E94F2054701F9E094
:102910005F2E5E0CD8011E962D913C911F9788E08A
:1029200090E07724739470E0F90160810180F28176
:10293000E02DF8944181462B41834281662E6094BC
:102940004621428347E050E0DA011197F1F74181D7
:1029500064226182D1011197F1F740817894EFEC04
:10296000F0E03197F1F7642309F07729770C0197AC
:10297000D9F6F40171934F015E12CCCF6A80712CAD
:10298000762C66248981682A8D81807619F4F8EF87
:102990006F2209C0803219F42CEF622204C0803407
:1029A00011F4E89460F8D80159966D917C915A978A
:1029B00040E050E080E593E00E94A208F80186859F
:1029C00097850E948C06B501D8011E968D919C9129
:1029D0001F970E945F0641E064E4F80186859785B1
:1029E0000E94F205B301770C880B990B0E940E1A16
:1029F00020E030E040E85DE30E94C31AD8015F9612
:102A00006D937D938D939C93929758968C91589744
:102A1000882309F4AFC01A968D919C911B970E9450
:102A2000D204F801818D928D009719F00197A1F0E1
:102A30002BC0478C50A061A072A060E070E084853C
:102A400095850E94540B9B01AC01C301B2010E9409
:102A5000BE1A1816CCF412C0478C50A061A072A008
:102A600061E070E0848595850E94540B9B01AC0168
:102A7000C301B2010E945F1987FF06C0F801818D72
:102A8000928D0196928F818FD8011A968D919C918B
:102A90001B970E94D204F801618D728D8485958503
:102AA0000E94540BD80193966D937D938D939C93C4
:102AB00096970E947C042B013C01F801828193814E
:102AC000A481B58120813181A901032E000C660B00
:102AD000770B53014201881A990AAA0ABB0A4815C2
:102AE00059056A057B0568F4480F591F6A1F7B1F4B
:102AF0004283538364837583B90186E693E00E9421
:102B0000A208F80182819381A481B581A301920179
:102B1000281B390B4A0B5B0BCA01B9010E940C1A26
:102B20009B01AC01D80197966D917D918D919C91FF
:102B30009A970E94BE1A18166CF461E0F80186811B
:102B40000E94CF03D80116966D917C91179741E0B2
:102B500050E00CC060E0F80186810E94CF03D801EC
:102B600016966D917C91179740E050E081E793E0D5
:102B70000E94A208F801878D90A1A1A1B2A1809323
:102B80004A0490934B04A0934C04B0934D0467A166
:102B900070A581A592A50E94D619D80159962D91AC
:102BA0003C915A97AB01B9018BE393E00E94A208D4
:102BB00040904A0450904B0460904C0470904D0437
:102BC000A3019201C301B2010E94301B882319F0B6
:102BD00068E773E01AC053014201E894B7F82FEF99
:102BE0003FEF4FE75FE7C501B4010E94301B811141
:102BF00011C02FEF3FEF4FE75FE7C501B4010E941F
:102C00005F1918163CF46CE773E084E894E00E94C6
:102C10001D0F7EC02FEF3FEF4FE75FE4C301B2010E
:102C20000E94BE1A18161CF460E873E0EECF2FEF76
:102C30003FEF4FE75FECC301B2010E945F1987FDD0
:102C4000F3CF20E030E0A901C301B2010E945F1977
:102C500087FF09C06DE284E894E00E94160F77FABE
:102C6000709477F870942AE037ED43EA5BE3C30190
:102C7000B2010E94F3184B015C010E94DD192B0187
:102C80003C010E940C1A9B01AC01C501B4010E94D9
:102C9000F2184B015C012AE0B301A20184E894E040
:102CA0000E946F0F6FED73E084E894E00E941D0FA7
:102CB00020E030E040E251E4C501B4010E94C31AB3
:102CC0002B013C010E94DD194B01A12CB12C2AE003
:102CD000B501A40184E894E00E946F0FC501B4011E
:102CE0000E940C1A9B01AC01C301B2010E94F218B0
:102CF00020E030E040E251E40E94C31A0E94DD1956
:102D0000AB0160E070E02AE084E894E00E946F0F7D
:102D100064E873E084E894E00E941D0FE09157049A
:102D2000F0915804808D811111C040E050E0B6014F
:102D300087E893E00E94A20860918004709181046A
:102D400080915704909158040E946C0B80917E04EE
:102D500090917F04209180043091810428173907D5
:102D6000C9F0909381048093800483E090E00E94F6
:102D7000F20E6091800470918104809157049091CB
:102D800058040E946C0B40E050E0B60183EA93E0E7
:102D90000E94A208E0915704F0915804618D728D51
:102DA00040E050E08CEB93E00E94A208E0915704D1
:102DB000F0915804618D728D848595850E94540B25
:102DC00060934604709347048093480490934904A9
:102DD000E0915704F091580487A190A5A1A5B2A550
:102DE0008093420490934304A0934404B093450419
:102DF0000E9457045B016C0178EC472E512C612C2A
:102E0000712C0E945704DC01CB018A199B09AC0983
:102E1000BD09883E9340A105B10558F0B1E04B1AB9
:102E2000510861087108E8EEAE0EE3E0BE1EC11C59
:102E3000D11C411451046104710419F70E944F011F
:102E4000D2CC63E0C62ED12C0EC0C12CD12C0BC02D
:102E5000CC24C394D12C07C042E0C42ED12C03C093
:102E600034E0C32ED12C80916404909165040E94BB
:102E70003A0EDC018D919C91F6017196EE0FFF1FC9
:102E8000E80FF91F0190F081E02D20813181213080
:102E9000310539F4DC01ED91FC910280F381E02DE4
:102EA0000CC022303105A4F022303105C1F4DC0120
:102EB000ED91FC910480F581E02D09950E94320F7F
:102EC00040E050E0B6018DE293E00E94A208CACC37
:102ED000232BA1F7828193810E94F20EEFCF233042
:102EE000310561F7DC01ED91FC910680F781E02D61
:102EF000E4CF0F931F93CF93DF93C0915D04D091E4
:102F00005E040091610410916204000F111F0C0F08
:102F10001D1FFE01C017D10731F0229680819181DB
:102F20000E94E91EF6CF80915D0490915E040E949C
:102F3000E91E81E295E00E9401038FE495E0DF91B4
:102F4000CF911F910F910C942E03FF920F931F931B
:102F5000CF93DF93A4E8B4E013961C921E921297CD
:102F600048EE53E060E070E014964D935D936D93EE
:102F70007C93179782E891E011969C938E9385EC51
:102F800090E01D969C938E931C9784EC90E01F9686
:102F90009C938E931E9780EC90E051969C938E9319
:102FA000509781EC90E053969C938E93529782ECCD
:102FB00090E055969C938E93549786EC90E05796AC
:102FC0009C938E93569759961C9259975A961C9299
:102FD0005A975B961C925B975C961C925C97EFE409
:102FE000F5E0C1E2D0E0D08FC78B118E128E138E28
:102FF00046E050E060E070E0448F558F668F778F39
:1030000010A211A212A213A220E224A316A215A2BA
:1030100011A681E595E090A787A380E292E09183D5
:1030200080838AE292E0958B848B168215821086CB
:103030001782128611861486138616861586108AC4
:1030400017868EEF91E093838283B38BA28B30E15E
:10305000318BE1E2F5E0D48FC38F158E168E178E7B
:1030600040A351A362A373A314A215A216A217A290
:1030700020A712A611A615A6128213821482158209
:1030800027E235E034A723A728EA31E03183208303
:1030900022EB31E0318F208F128611861486138641
:1030A00016861586108A1786128A118A148A138A40
:1030B00097838683B78BA68B88E0F82EF58AB0932A
:1030C0008304A093820464EC76E08CED96E00E9489
:1030D000ED1D809180049091810490937F048093F2
:1030E0007E04C9E5D4E080E190E09983888302E022
:1030F00010E01B830A8388E090E09F838E8319860B
:10310000188680E190E00E94541E9D838C831C866B
:103110001B86188A1F868AE392E09E878D87F98A2C
:103120008FEF8A8B89E08B8B84E08C8B85E08D8B95
:1031300086E08E8B87E08F8B188E198E1A8E1B8EF1
:103140001C8E61E086E694E00E94600D62E086E6F7
:1031500094E00E94600D8BE290E00E94541EFC01FE
:1031600088E893E19183808312821382148215820E
:103170008FE090E09783868311870087128E118EEF
:10318000F0935804E0935704DF91CF911F910F9172
:10319000FF900895A1E21A2EAA1BBB1BFD010DC0D2
:1031A000AA1FBB1FEE1FFF1FA217B307E407F507F7
:1031B00020F0A21BB30BE40BF50B661F771F881FD3
:1031C000991F1A9469F760957095809590959B0169
:1031D000AC01BD01CF010895EE0FFF1F0590F491E2
:1031E000E02D09945058BB27AA270E940A190C9475
:1031F000841A0E94761A38F00E947D1A20F039F461
:103200009F3F19F426F40C94731A0EF4E095E7FB33
:103210000C946D1AE92F0E94951A58F3BA17620799
:1032200073078407950720F079F4A6F50C94B71A74
:103230000EF4E0950B2EBA2FA02D0B01B9019001D1
:103240000C01CA01A0011124FF27591B99F0593F15
:1032500050F4503E68F11A16F040A22F232F342F5D
:103260004427585FF3CF469537952795A795F040AB
:103270005395C9F77EF41F16BA0B620B730B840BC0
:10328000BAF09150A1F0FF0FBB1F661F771F881F78
:10329000C2F70EC0BA0F621F731F841F48F48795D0
:1032A00077956795B795F7959E3F08F0B0CF9395C2
:1032B000880F08F09927EE0F9795879508950E943B
:1032C000491A08F481E008950E9478190C94841A30
:1032D0000E947D1A58F00E94761A40F029F45F3F50
:1032E00029F00C946D1A51110C94B81A0C94731A9D
:1032F0000E94951A68F39923B1F3552391F3951B16
:10330000550BBB27AA2762177307840738F09F5F06
:103310005F4F220F331F441FAA1FA9F335D00E2E73
:103320003AF0E0E832D091505040E695001CCAF7E0
:103330002BD0FE2F29D0660F771F881FBB1F2617A3
:1033400037074807AB07B0E809F0BB0B802DBF017A
:10335000FF2793585F4F3AF09E3F510578F00C9449
:103360006D1A0C94B81A5F3FE4F3983ED4F3869537
:1033700077956795B795F7959F5FC9F7880F911D6A
:103380009695879597F90895E1E0660F771F881F56
:10339000BB1F621773078407BA0720F0621B730B09
:1033A000840BBA0BEE1F88F7E09508950E94DD1993
:1033B0006894B1110C94B81A08950E949D1A88F06F
:1033C0009F5798F0B92F9927B751B0F0E1F0660FE9
:1033D000771F881F991F1AF0BA95C9F714C0B1302A
:1033E00091F00E94B71AB1E008950C94B71A672FB4
:1033F000782F8827B85F39F0B93FCCF38695779559
:103400006795B395D9F73EF4909580957095619541
:103410007F4F8F4F9F4F0895E89409C097FB3EF46C
:1034200090958095709561957F4F8F4F9F4F992311
:10343000A9F0F92F96E9BB279395F695879577958F
:103440006795B795F111F8CFFAF4BB0F11F460FF4F
:103450001BC06F5F7F4F8F4F9F4F16C0882311F0A7
:1034600096E911C0772321F09EE8872F762F05C0BB
:10347000662371F096E8862F70E060E02AF09A9556
:10348000660F771F881FDAF7880F9695879597F94B
:103490000895990F0008550FAA0BE0E8FEEF1616E5
:1034A0001706E807F907C0F012161306E407F50738
:1034B00098F0621B730B840B950B39F40A2661F0AC
:1034C000232B242B252B21F408950A2609F4A1404F
:1034D000A6958FEF811D811D089597F99F6780E85C
:1034E00070E060E008959FEF80EC089500240A9456
:1034F0001616170618060906089500240A941216CF
:103500001306140605060895092E0394000C11F401
:10351000882352F0BB0F40F4BF2B11F460FF04C0AE
:103520006F5F7F4F8F4F9F4F089557FD9058440F07
:10353000551F59F05F3F71F04795880F97FB991F12
:1035400061F09F3F79F087950895121613061406CF
:10355000551FF2CF4695F1DF08C01616170618065C
:10356000991FF1CF86957105610508940895E89437
:10357000BB2766277727CB0197F908950E94491A40
:1035800008F48FEF08950E94D61A0C94841A0E94B2
:10359000761A38F00E947D1A20F0952311F00C94D1
:1035A0006D1A0C94731A11240C94B81A0E94951A6F
:1035B00070F3959FC1F3950F50E0551F629FF00186
:1035C000729FBB27F00DB11D639FAA27F00DB11D9F
:1035D000AA1F649F6627B00DA11D661F829F222728
:1035E000B00DA11D621F739FB00DA11D621F839FAF
:1035F000A00D611D221F749F3327A00D611D231F85
:10360000849F600D211D822F762F6A2F11249F57D2
:1036100050409AF0F1F088234AF0EE0FFF1FBB1FD5
:10362000661F771F881F91505040A9F79E3F510594
:1036300080F00C946D1A0C94B81A5F3FE4F3983E36
:10364000D4F3869577956795B795F795E7959F5F3E
:10365000C1F7FE2B880F911D9695879597F90895D0
:103660000E94491A880B990B089581E090E0F89424
:103670000C94D51FFB01DC010D900020E9F7119798
:1036800001900D920020E1F70895FB01DC0101900B
:103690000D920020E1F70895AEE0B0E0E2E5FBE135
:1036A0000C94AC1F0D891E8986E08C831A830983D4
:1036B0008FEF9FE79E838D83AE01475E5F4F6F89DB
:1036C000788DCE0101960E946F1B2F813885F801FD
:1036D000E20FF31F10822E96E4E00C94C81FACE0BA
:1036E000B0E0E5E7FBE10C949E1F7C016B018A01D1
:1036F000FC0117821682838181FFBDC1CE01019634
:103700004C01F7019381F60193FD859193FF81911F
:103710006F01882309F4ABC1853239F493FD85919B
:1037200093FF81916F01853229F4B70190E00E94E7
:10373000571DE7CF512C312C20E02032A0F48B32E2
:1037400069F030F4803259F0833269F420612CC082
:103750008D3239F0803339F4216026C02260246034
:1037600023C0286021C027FD27C030ED380F3A3034
:1037700078F426FF06C0FAE05F9E300D1124532E28
:1037800013C08AE0389E300D1124332E20620CC005
:103790008E3221F426FD6BC1206406C08C3611F4F4
:1037A000206802C0883641F4F60193FD859193FFAD
:1037B00081916F018111C1CF982F9F7D95549330D6
:1037C00028F40C5F1F4FFFE3F9830DC0833631F0FF
:1037D000833771F0833509F05BC022C0F801808126
:1037E00089830E5F1F4F44244394512C540115C00C
:1037F0003801F2E06F0E711CF801A080B18026FF45
:1038000003C0652D70E002C06FEF7FEFC5012C870C
:103810000E944C1D2C0183012C852F77222E17C06E
:103820003801F2E06F0E711CF801A080B18026FF14
:1038300003C0652D70E002C06FEF7FEFC5012C87DC
:103840000E94411D2C012C852068222E830123FC1F
:103850001BC0832D90E048165906B0F4B70180E2F2
:1038600090E00E94571D3A94F4CFF50127FC859112
:1038700027FE81915F01B70190E00E94571D311032
:103880003A94F1E04F1A51084114510471F7E5C020
:10389000843611F0893639F5F80127FF07C06081B9
:1038A0007181828193810C5F1F4F08C0608171819B
:1038B000072E000C880B990B0E5F1F4F2F76722E70
:1038C00097FF09C090958095709561957F4F8F4FB8
:1038D0009F4F2068722E2AE030E0A4010E948F1DC5
:1038E000A82EA81844C0853729F42F7EB22E2AE0CE
:1038F00030E025C0F22FF97FBF2E8F36C1F018F4CB
:10390000883579F0B4C0803719F0883721F0AFC01E
:103910002F2F2061B22EB4FE0DC08B2D8460B82EE7
:1039200009C024FF0AC09F2F9660B92E06C028E068
:1039300030E005C020E130E002C020E132E0F801D3
:10394000B7FE07C060817181828193810C5F1F4F38
:1039500006C06081718180E090E00E5F1F4FA4017E
:103960000E948F1DA82EA818FB2DFF777F2E76FEB4
:103970000BC0372D3E7FA51450F474FE0AC072FCB4
:1039800008C0372D3E7E05C0BA2C372D03C0BA2C97
:1039900001C0B52C34FF0DC0FE01EA0DF11D808180
:1039A000803311F4397E09C032FF06C0B394B3945A
:1039B00004C0832F867809F0B39433FD13C030FF21
:1039C00006C05A2CB31418F4530C5B18B32CB31460
:1039D00068F4B70180E290E03C870E94571DB394E1
:1039E0003C85F5CFB31410F43B1801C0312C34FFE3
:1039F00012C0B70180E390E03C870E94571D3C85D0
:103A000032FF17C031FD03C088E790E002C088E5AF
:103A100090E0B7010CC0832F867859F031FF02C0C7
:103A20008BE201C080E237FD8DE2B70190E00E9499
:103A3000571DA51438F4B70180E390E00E94571D8C
:103A40005A94F7CFAA94F401EA0DF11D8081B701D1
:103A500090E00E94571DA110F5CF332009F451CEFC
:103A6000B70180E290E00E94571D3A94F6CFF7012B
:103A70008681978102C08FEF9FEF2C96E2E10C9434
:103A8000BA1FFC010590615070400110D8F7809575
:103A900090958E0F9F1F0895FC016150704001901A
:103AA0000110D8F7809590958E0F9F1F08950F9362
:103AB0001F93CF93DF93FB01238121FD03C08FEF81
:103AC0009FEF28C022FF16C046815781248135818F
:103AD0004217530744F4A081B1819D012F5F3F4FEE
:103AE000318320838C93268137812F5F3F4F37832B
:103AF000268310C0EB01092F182F0084F185E02DDB
:103B00000995892BE1F68E819F8101969F838E8393
:103B1000812F902FDF91CF911F910F910895FA017E
:103B2000AA27283051F1203181F1E8946F936E7FFC
:103B30006E5F7F4F8F4F9F4FAF4FB1E03ED0B4E0ED
:103B40003CD0670F781F891F9A1FA11D680F791F2E
:103B50008A1F911DA11D6A0F711D811D911DA11D3F
:103B600020D009F468943F912AE0269F112430194F
:103B7000305D3193DEF6CF010895462F4770405DEA
:103B80004193B3E00FD0C9F7F6CF462F4F70405D99
:103B90004A3318F0495D31FD4052419302D0A9F7F4
:103BA000EACFB4E0A6959795879577956795BA95EE
:103BB000C9F700976105710508959B01AC010A2EB4
:103BC00006945795479537952795BA95C9F7620F8B
:103BD000731F841F951FA01D08950F931F93CF93EC
:103BE000DF93009731F46115710519F480E090E0DE
:103BF0003AC08B01EC016EE070E081E090E00E9441
:103C0000381EFC01892B91F380E88383011511058F
:103C100071F01387028781E8838380917905909101
:103C20007A05892B21F4F0937A05E09379052097A2
:103C3000C9F0D187C08783818260838380917B05AF
:103C400090917C05892B71F4F0937C05E0937B05C2
:103C500080917D0590917E05892B21F4F0937E055E
:103C6000E0937D05CF01DF91CF911F910F910895D2
:103C70000F931F93CF93DF93869F8001879F100D33
:103C8000969F100D1124C8010E94541EEC0100974C
:103C900029F0A80160E070E00E94811FCE01DF9151
:103CA000CF911F910F910895CF93DF9382309105AB
:103CB00010F482E090E0E0918105F091820520E02F
:103CC00030E0C0E0D0E0309711F1408151814817D9
:103CD0005907C0F04817590761F4828193812097F2
:103CE00019F09B838A832BC0909382058093810572
:103CF00026C02115310519F04217530718F49A010F
:103D0000BE01DF01EF010280F381E02DDCCF211540
:103D1000310509F1281B390B2430310590F4129636
:103D20008D919C9113976115710521F0FB0193838F
:103D3000828304C09093820580938105FD013296B1
:103D400044C0FD01E20FF31F81939193225031098A
:103D50002D933C933AC020917F0530918005232B11
:103D600041F42091020130910301309380052093AA
:103D70007F0520910001309101012115310541F4A9
:103D80002DB73EB74091040150910501241B350B1E
:103D9000E0917F05F0918005E217F307A0F42E1B58
:103DA0003F0B2817390778F0AC014E5F5F4F24179F
:103DB000350748F04E0F5F1F5093800540937F05F5
:103DC0008193919302C0E0E0F0E0CF01DF91CF91C9
:103DD00008950F931F93CF93DF93009709F48CC03E
:103DE000FC013297138212820091810510918205A5
:103DF0000115110581F420813181820F931F2091DB
:103E00007F05309180052817390779F5F0938005F3
:103E1000E0937F0571C0D80140E050E0AE17BF07C6
:103E200050F412962D913C911397AD012115310557
:103E300009F1D901F3CF9D01DA0133832283608137
:103E40007181860F971F8217930769F4EC0128810F
:103E50003981260F371F2E5F3F4F318320838A81A0
:103E60009B8193838283452B29F4F0938205E09311
:103E7000810542C01396FC93EE931297ED01499190
:103E800059919E01240F351FE217F30771F48081C9
:103E90009181840F951F029611969C938E93828137
:103EA000938113969C938E931297E0E0F0E0D801F3
:103EB00012968D919C911397009719F0F8018C013F
:103EC000F6CF8D919C9198012E5F3F4F820F931FEB
:103ED00020917F05309180052817390769F43097C4
:103EE00029F4109282051092810502C01382128279
:103EF0001093800500937F05DF91CF911F910F9163
:103F00000895DC0101C06D9341505040E0F70895E1
:103F1000F999FECF92BD81BDF89A992780B5089591
:103F2000262FF999FECF1FBA92BD81BD20BD0FB6D5
:103F3000F894FA9AF99A0FBE019608952F923F923B
:103F40004F925F926F927F928F929F92AF92BF92A9
:103F5000CF92DF92EF92FF920F931F93CF93DF9355
:103F6000CDB7DEB7CA1BDB0B0FB6F894DEBF0FBEB2
:103F7000CDBF09942A88398848885F846E847D84FF
:103F80008C849B84AA84B984C884DF80EE80FD8001
:103F90000C811B81AA81B981CE0FD11D0FB6F89477
:103FA000DEBF0FBECDBFED01089510E0C2E6D0E048
:103FB00004C0FE010E94EC182196C336D107C9F750
:043FC000F894FFCFA3
:103FC40000008305800000000000B80739073807A7
:103FD400370736073F0A00000000B807310C280CE9
:103FE4001B0C0E0CB20700000000E40CBA0C900C81
:103FF4003A070E0BB20700000000B807B707B60770
:10400400B507B407B20700000000170DB107B007E9
:10401400AF07AE07530718000000000000000000BF
:10402400E8FFE8FF000000000000140000000000AA
:1040340000000000ECFFECFF0000000000000000A6
:104044000000E6004C0EAF008D00A1002D0106001B
:1040540000000000E002E202FAFFFAFF0000E102C1
:10406400E40218000000000001031803E8FFE8FF61
:1040740000000E032203A8015C016601B2010000E6
:104084000000C206DE0269026602630260025D028B
:10409400D401D001CD01B701D7015B015901020060
:1040A40000000000BA076303FEFFFEFF000059038F
:1040B4006D03000000001808BB0700000000C306E1
:1040C4002C0369026602630260025D0251020B0264
:1040D400F201D901D7018B026A021400000000002A
:1040E4002E034503ECFFECFF00003B034F032002CB
:1040F40070017A012A020000000099084C0E7365D1
:1041040074757028295F64656275745F0054656D09
:10411400706572657573653A3A696E697428295FCA
:1041240064656275740054656D7065726575736558
:104134003A3A696E697428295F66696E007365741A
:10414400757028295F64656275745F320052656317
:10415400657474653A3A7365740073657475702890
:10416400295F66696E5F0043686F636F4D617263B8
:104174002076312E3000203C20436F6E74696E75BA
:104184006572203E200054656D702E206163747545
:10419400656C6C650043686F69782072656365744B
:1041A40074652020200045646974696F6E2072650F
:1041B4006365747465202300205431207C202054CE
:1041C40032207C20543320200054656D707C436978
:1041D400626C657C4368617566006C6F6F7028293A
:1041E4005F64656275745F6379636C65006C6F6F9F
:1041F4007028295F626F75746F6E0054656D706509
:1042040072657573653A3A7570646174652829003E
:1042140054656D706572657573653A3A6765745473
:10422400656D7028290057696E646F7753697A65E4
:10423400004F7574707574006E616E00696E66006F
:104244006F7666000D0A006C6F6F7028295F7265C7
:1042540063657474655F64EFBFBD6D617272EFBFB7
:10426400BD65006C6F6F7028295F72656365747437
:10427400655F6368616E67EFBFBD65006C6F6F70EB
:1042840028295F66696E5F6379636C6500466F6EAB
:104294006374696F6E20002C203A20006572722EC0
:1042A400002564007C2000526563657474653A3AA5
:1042B4006C6F616452656365747465282900526586
:1042C40063657474653A3A736176655265636574BF
:1042D4007465282900526563657474653A3A736598
:1042E40074706F696E7428290054656D7065726509
:0E42F4007573653A3A7374617274282900007C
:00000001FF
